{
  "_format": "hh-sol-artifact-1",
  "contractName": "RaceEscrow",
  "sourceName": "contracts/RaceEscrow.sol",
  "abi": [
    {
      "inputs": [
        {
          "internalType": "string",
          "name": "name",
          "type": "string"
        },
        {
          "internalType": "string",
          "name": "version",
          "type": "string"
        }
      ],
      "stateMutability": "nonpayable",
      "type": "constructor"
    },
    {
      "inputs": [],
      "name": "ECDSAInvalidSignature",
      "type": "error"
    },
    {
      "inputs": [
        {
          "internalType": "uint256",
          "name": "length",
          "type": "uint256"
        }
      ],
      "name": "ECDSAInvalidSignatureLength",
      "type": "error"
    },
    {
      "inputs": [
        {
          "internalType": "bytes32",
          "name": "s",
          "type": "bytes32"
        }
      ],
      "name": "ECDSAInvalidSignatureS",
      "type": "error"
    },
    {
      "inputs": [],
      "name": "ReentrancyGuardReentrantCall",
      "type": "error"
    },
    {
      "anonymous": false,
      "inputs": [
        {
          "indexed": true,
          "internalType": "uint256",
          "name": "raceId",
          "type": "uint256"
        }
      ],
      "name": "Closed",
      "type": "event"
    },
    {
      "anonymous": false,
      "inputs": [
        {
          "indexed": true,
          "internalType": "uint256",
          "name": "raceId",
          "type": "uint256"
        },
        {
          "indexed": true,
          "internalType": "address",
          "name": "from",
          "type": "address"
        },
        {
          "indexed": false,
          "internalType": "uint256",
          "name": "amount",
          "type": "uint256"
        }
      ],
      "name": "Deposited",
      "type": "event"
    },
    {
      "anonymous": false,
      "inputs": [
        {
          "indexed": true,
          "internalType": "address",
          "name": "from",
          "type": "address"
        },
        {
          "indexed": false,
          "internalType": "uint256",
          "name": "amount",
          "type": "uint256"
        }
      ],
      "name": "DirectDeposit",
      "type": "event"
    },
    {
      "anonymous": false,
      "inputs": [
        {
          "indexed": true,
          "internalType": "address",
          "name": "from",
          "type": "address"
        },
        {
          "indexed": false,
          "internalType": "uint256",
          "name": "amount",
          "type": "uint256"
        },
        {
          "indexed": false,
          "internalType": "bytes",
          "name": "data",
          "type": "bytes"
        }
      ],
      "name": "FallbackDeposit",
      "type": "event"
    },
    {
      "anonymous": false,
      "inputs": [
        {
          "indexed": true,
          "internalType": "uint256",
          "name": "raceId",
          "type": "uint256"
        },
        {
          "indexed": true,
          "internalType": "address",
          "name": "runner",
          "type": "address"
        }
      ],
      "name": "Joined",
      "type": "event"
    },
    {
      "anonymous": false,
      "inputs": [
        {
          "indexed": true,
          "internalType": "uint256",
          "name": "raceId",
          "type": "uint256"
        },
        {
          "indexed": false,
          "internalType": "uint256",
          "name": "stakeWei",
          "type": "uint256"
        },
        {
          "indexed": false,
          "internalType": "uint256",
          "name": "joinDeadline",
          "type": "uint256"
        },
        {
          "indexed": false,
          "internalType": "address",
          "name": "organizer",
          "type": "address"
        }
      ],
      "name": "RaceCreated",
      "type": "event"
    },
    {
      "anonymous": false,
      "inputs": [
        {
          "indexed": true,
          "internalType": "uint256",
          "name": "raceId",
          "type": "uint256"
        }
      ],
      "name": "Refunded",
      "type": "event"
    },
    {
      "anonymous": false,
      "inputs": [
        {
          "indexed": true,
          "internalType": "uint256",
          "name": "raceId",
          "type": "uint256"
        },
        {
          "indexed": true,
          "internalType": "address",
          "name": "winner",
          "type": "address"
        },
        {
          "indexed": false,
          "internalType": "uint256",
          "name": "amount",
          "type": "uint256"
        }
      ],
      "name": "Resolved",
      "type": "event"
    },
    {
      "stateMutability": "payable",
      "type": "fallback"
    },
    {
      "inputs": [
        {
          "internalType": "uint256",
          "name": "raceId",
          "type": "uint256"
        }
      ],
      "name": "claimToRace",
      "outputs": [],
      "stateMutability": "nonpayable",
      "type": "function"
    },
    {
      "inputs": [
        {
          "internalType": "address",
          "name": "user",
          "type": "address"
        },
        {
          "internalType": "uint256",
          "name": "raceId",
          "type": "uint256"
        }
      ],
      "name": "claimToRaceFor",
      "outputs": [],
      "stateMutability": "nonpayable",
      "type": "function"
    },
    {
      "inputs": [
        {
          "internalType": "uint256",
          "name": "raceId",
          "type": "uint256"
        }
      ],
      "name": "closeJoin",
      "outputs": [],
      "stateMutability": "nonpayable",
      "type": "function"
    },
    {
      "inputs": [
        {
          "internalType": "uint256",
          "name": "stakeWei",
          "type": "uint256"
        },
        {
          "internalType": "uint256",
          "name": "joinWindowSeconds",
          "type": "uint256"
        },
        {
          "internalType": "address",
          "name": "resultSigner",
          "type": "address"
        }
      ],
      "name": "createRace",
      "outputs": [
        {
          "internalType": "uint256",
          "name": "raceId",
          "type": "uint256"
        }
      ],
      "stateMutability": "nonpayable",
      "type": "function"
    },
    {
      "inputs": [
        {
          "internalType": "uint256",
          "name": "raceId",
          "type": "uint256"
        }
      ],
      "name": "depositToRace",
      "outputs": [],
      "stateMutability": "payable",
      "type": "function"
    },
    {
      "inputs": [
        {
          "internalType": "uint256",
          "name": "raceId",
          "type": "uint256"
        }
      ],
      "name": "getRace",
      "outputs": [
        {
          "internalType": "uint256",
          "name": "stakeWei",
          "type": "uint256"
        },
        {
          "internalType": "uint256",
          "name": "joinDeadline",
          "type": "uint256"
        },
        {
          "internalType": "address",
          "name": "organizer",
          "type": "address"
        },
        {
          "internalType": "address",
          "name": "resultSigner",
          "type": "address"
        },
        {
          "internalType": "enum RaceEscrow.RaceState",
          "name": "state",
          "type": "uint8"
        },
        {
          "internalType": "address",
          "name": "winner",
          "type": "address"
        },
        {
          "internalType": "uint256",
          "name": "pool",
          "type": "uint256"
        },
        {
          "internalType": "uint256",
          "name": "participantCount",
          "type": "uint256"
        }
      ],
      "stateMutability": "view",
      "type": "function"
    },
    {
      "inputs": [
        {
          "internalType": "uint256",
          "name": "raceId",
          "type": "uint256"
        },
        {
          "internalType": "address",
          "name": "user",
          "type": "address"
        }
      ],
      "name": "hasJoined",
      "outputs": [
        {
          "internalType": "bool",
          "name": "",
          "type": "bool"
        }
      ],
      "stateMutability": "view",
      "type": "function"
    },
    {
      "inputs": [
        {
          "internalType": "uint256",
          "name": "raceId",
          "type": "uint256"
        }
      ],
      "name": "joinRace",
      "outputs": [],
      "stateMutability": "payable",
      "type": "function"
    },
    {
      "inputs": [],
      "name": "nextRaceId",
      "outputs": [
        {
          "internalType": "uint256",
          "name": "",
          "type": "uint256"
        }
      ],
      "stateMutability": "view",
      "type": "function"
    },
    {
      "inputs": [],
      "name": "nonce",
      "outputs": [
        {
          "internalType": "uint256",
          "name": "",
          "type": "uint256"
        }
      ],
      "stateMutability": "view",
      "type": "function"
    },
    {
      "inputs": [
        {
          "internalType": "uint256",
          "name": "raceId",
          "type": "uint256"
        }
      ],
      "name": "participantsOf",
      "outputs": [
        {
          "internalType": "address[]",
          "name": "",
          "type": "address[]"
        }
      ],
      "stateMutability": "view",
      "type": "function"
    },
    {
      "inputs": [
        {
          "internalType": "address",
          "name": "",
          "type": "address"
        }
      ],
      "name": "pendingCredits",
      "outputs": [
        {
          "internalType": "uint256",
          "name": "",
          "type": "uint256"
        }
      ],
      "stateMutability": "view",
      "type": "function"
    },
    {
      "inputs": [
        {
          "internalType": "uint256",
          "name": "raceId",
          "type": "uint256"
        }
      ],
      "name": "refundAll",
      "outputs": [],
      "stateMutability": "nonpayable",
      "type": "function"
    },
    {
      "inputs": [
        {
          "internalType": "uint256",
          "name": "raceId",
          "type": "uint256"
        },
        {
          "internalType": "address",
          "name": "winner",
          "type": "address"
        },
        {
          "internalType": "bytes",
          "name": "signature",
          "type": "bytes"
        }
      ],
      "name": "submitResult",
      "outputs": [],
      "stateMutability": "nonpayable",
      "type": "function"
    },
    {
      "stateMutability": "payable",
      "type": "receive"
    }
  ],
  "bytecode": "0x60a06040523480156200001157600080fd5b506040516200189638038062001896833981016040819052620000349162000180565b60016000558151602080840191909120825183830120604080517f8b73c3c69bb8fe3d512ecc4cf759cc79239f7b179b0ffacaa9a75d522b39400f94810194909452830191909152606082015246608082018190523060a08301529060c00160408051601f19818403018152919052805160209091012060805250620001ea915050565b634e487b7160e01b600052604160045260246000fd5b600082601f830112620000e057600080fd5b81516001600160401b0380821115620000fd57620000fd620000b8565b604051601f8301601f19908116603f01168101908282118183101715620001285762000128620000b8565b81604052838152602092508660208588010111156200014657600080fd5b600091505b838210156200016a57858201830151818301840152908201906200014b565b6000602085830101528094505050505092915050565b600080604083850312156200019457600080fd5b82516001600160401b0380821115620001ac57600080fd5b620001ba86838701620000ce565b93506020850151915080821115620001d157600080fd5b50620001e085828601620000ce565b9150509250929050565b608051611690620002066000396000610bf801526116906000f3fe6080604052600436106100e15760003560e01c8063681947191161007f578063b13bd33911610059578063b13bd33914610361578063d9b8fd8f14610381578063e200c85714610397578063e9fee16f146103c457610142565b806368194719146102ee578063aa3534021461031e578063affed0e01461034b57610142565b8063156ed2ca116100bb578063156ed2ca1461029b578063276c1ee5146102bb57806331d21c5b146102db57806350c95171146102db57610142565b80630c296b89146101c05780630d71aba5146101f35780630e6ef62f1461027b57610142565b36610142573360009081526004602052604081208054349290610105908490611326565b909155505060405134815233907fe7b3b57577ad57e4de60cc81cd73456448c8cfb13bad2904338c9988b274bbae906020015b60405180910390a2005b366020036101655760006101563682611339565b90506101638133346103e4565b005b3360009081526004602052604081208054349290610184908490611326565b909155505060405133907fe1769a885c9188c6966b88eb9621edeba30b94279ca482317b622996717231d2906101389034906000903690611352565b3480156101cc57600080fd5b506101e06101db3660046113a4565b6105bc565b6040519081526020015b60405180910390f35b3480156101ff57600080fd5b5061026761020e366004611339565b60009081526003602081905260409091208054600182015460028301549383015460048401546005850154600790950154939692956001600160a01b039081169581841695600160a01b90940460ff1694919092169290565b6040516101ea9897969594939291906113ef565b34801561028757600080fd5b5061016361029636600461145d565b6106ee565b3480156102a757600080fd5b506101636102b6366004611339565b61084a565b3480156102c757600080fd5b506101636102d6366004611339565b61091e565b6101636102e9366004611339565b610a5e565b3480156102fa57600080fd5b5061030e610309366004611487565b610a7b565b60405190151581526020016101ea565b34801561032a57600080fd5b506101e06103393660046114b3565b60046020526000908152604090205481565b34801561035757600080fd5b506101e060015481565b34801561036d57600080fd5b5061016361037c3660046114d5565b610aab565b34801561038d57600080fd5b506101e060025481565b3480156103a357600080fd5b506103b76103b2366004611339565b610e18565b6040516101ea919061155c565b3480156103d057600080fd5b506101636103df366004611339565b610e87565b600083815260036020526040812090600382810154600160a01b900460ff1690811115610413576104136113d9565b146104395760405162461bcd60e51b8152600401610430906115a9565b60405180910390fd5b806001015442111561045d5760405162461bcd60e51b8152600401610430906115cb565b8054821461049b5760405162461bcd60e51b815260206004820152600b60248201526a77726f6e67207374616b6560a81b6044820152606401610430565b6001600160a01b038316600090815260068201602052604090205460ff16156104d65760405162461bcd60e51b8152600401610430906115f0565b6001600160a01b038316600081815260068301602090815260408220805460ff19166001908117909155600785018054918201815583529082200180546001600160a01b031916909217909155600582018054849290610537908490611326565b90915550506040516001600160a01b0384169085907fc0081eeafa0d002abcd7d58d84b6e688d1526b9c3d915a282212ba08c49a17a790600090a3826001600160a01b0316847f1599c0fcf897af5babc2bfcf707f5dc050f841b044d97c3251ecec35b9abf80b846040516105ae91815260200190565b60405180910390a350505050565b60008084116105f75760405162461bcd60e51b815260206004820152600760248201526607374616b653d360cc1b6044820152606401610430565b6001600160a01b0382166106385760405162461bcd60e51b815260206004820152600860248201526707369676e65723d360c41b6044820152606401610430565b6002805490600061064883611618565b90915550600081815260036020526040902085815590915061066a8442611326565b600182018190556002820180546001600160a01b031916339081179091556003830180546001600160a81b0319166001600160a01b03871617905560408051888152602081019390935282015282907f1a733ed4aef3b43db3775d1b55f6048d6764cdaca701ea785cf87be5e0893fa99060600160405180910390a2509392505050565b6106f66110e7565b600081815260036020526040812090600382810154600160a01b900460ff1690811115610725576107256113d9565b146107425760405162461bcd60e51b8152600401610430906115a9565b80600101544211156107665760405162461bcd60e51b8152600401610430906115cb565b80546001600160a01b0384166000908152600460205260409020548111156107c65760405162461bcd60e51b81526020600482015260136024820152721a5b9cdd59999a58da595b9d0818dc99591a5d606a1b6044820152606401610430565b6001600160a01b038416600090815260068301602052604090205460ff16156108015760405162461bcd60e51b8152600401610430906115f0565b6001600160a01b03841660009081526004602052604081208054839290610829908490611631565b9091555061083a90508385836103e4565b50506108466001600055565b5050565b600081815260036020526040812090600382810154600160a01b900460ff1690811115610879576108796113d9565b146108965760405162461bcd60e51b8152600401610430906115a9565b806001015442116108da5760405162461bcd60e51b815260206004820152600e60248201526d7374696c6c206a6f696e61626c6560901b6044820152606401610430565b60038101805460ff60a01b1916600160a01b17905560405182907f6cc09e7b5c3e49861ebe8f6867e1618fbfc14c8d0e968fde37c4243ca02a6f8390600090a25050565b6109266110e7565b600081815260036020526040812090600382810154600160a01b900460ff1690811115610955576109556113d9565b146109725760405162461bcd60e51b8152600401610430906115a9565b80600101544211156109965760405162461bcd60e51b8152600401610430906115cb565b8054336000908152600460205260409020548111156109ed5760405162461bcd60e51b81526020600482015260136024820152721a5b9cdd59999a58da595b9d0818dc99591a5d606a1b6044820152606401610430565b33600090815260068301602052604090205460ff1615610a1f5760405162461bcd60e51b8152600401610430906115f0565b3360009081526004602052604081208054839290610a3e908490611631565b90915550610a4f90508333836103e4565b5050610a5b6001600055565b50565b610a666110e7565b610a718133346103e4565b610a5b6001600055565b60008281526003602090815260408083206001600160a01b038516845260060190915290205460ff165b92915050565b610ab36110e7565b60008481526003602052604090206001600382810154600160a01b900460ff1690811115610ae357610ae36113d9565b14610b1d5760405162461bcd60e51b815260206004820152600a6024820152691b9bdd0818db1bdcd95960b21b6044820152606401610430565b6001600160a01b038416600090815260068201602052604090205460ff16610b805760405162461bcd60e51b81526020600482015260166024820152751dda5b9b995c881b9bdd081c185c9d1a58da5c185b9d60521b6044820152606401610430565b600154604080517f4adc2572cd3e5132beb0984cc599c0df6973bedc3d6b61061a852fa34ccbd23160208201529081018790526001600160a01b0386166060820152608081019190915260009060a00160408051601f1981840301815290829052805160209182012061190160f01b918301919091527f000000000000000000000000000000000000000000000000000000000000000060228301526042820181905291506000906062016040516020818303038152906040528051906020012090506000610c858287878080601f01602080910402602001604051908101604052809392919081815260200183838082843760009201919091525061111192505050565b60038501549091506001600160a01b03808316911614610cd75760405162461bcd60e51b815260206004820152600d60248201526c626164207369676e617475726560981b6044820152606401610430565b60058401805460009182905560038601805460ff60a01b1916600160a11b1790556004860180546001600160a01b0319166001600160a01b038b16179055600180549192610d2483611618565b91905055506000886001600160a01b03168260405160006040518083038185875af1925050503d8060008114610d76576040519150601f19603f3d011682016040523d82523d6000602084013e610d7b565b606091505b5050905080610dbe5760405162461bcd60e51b815260206004820152600f60248201526e1d1c985b9cd9995c8819985a5b1959608a1b6044820152606401610430565b886001600160a01b03168a7f97edf642b74402b9b5b06c1324b9fff512b4fee8ef46e2d28e465de88b35fe8c84604051610dfa91815260200190565b60405180910390a3505050505050610e126001600055565b50505050565b600081815260036020908152604091829020600701805483518184028101840190945280845260609392830182828015610e7b57602002820191906000526020600020905b81546001600160a01b03168152600190910190602001808311610e5d575b50505050509050919050565b610e8f6110e7565b60008181526003602052604090206001600382810154600160a01b900460ff1690811115610ebf57610ebf6113d9565b1480610eea57506000600382810154600160a01b900460ff1690811115610ee857610ee86113d9565b145b610f275760405162461bcd60e51b815260206004820152600e60248201526d6e6f7420726566756e6461626c6560901b6044820152606401610430565b60028101546001600160a01b03163314610f735760405162461bcd60e51b815260206004820152600d60248201526c3737ba1037b933b0b734bd32b960991b6044820152606401610430565b60038101805460ff60a01b1916600360a01b1790556007810154815460005b828110156110ae576000846007018281548110610fb157610fb1611644565b60009182526020808320909101546001600160a01b03168083526006880190915260409091205490915060ff16156110a5576001600160a01b0381166000818152600687016020526040808220805460ff191690555190919085908381818185875af1925050503d8060008114611044576040519150601f19603f3d011682016040523d82523d6000602084013e611049565b606091505b505090508061108a5760405162461bcd60e51b815260206004820152600d60248201526c1c99599d5b990819985a5b1959609a1b6044820152606401610430565b8386600501600082825461109e9190611631565b9091555050505b50600101610f92565b5060405184907f3d2a04f53164bedf9a8a46353305d6b2d2261410406df3b41f99ce6489dc003c90600090a2505050610a5b6001600055565b60026000540361110a57604051633ee5aeb560e01b815260040160405180910390fd5b6002600055565b600080600080611121868661113b565b9250925092506111318282611188565b5090949350505050565b600080600083516041036111755760208401516040850151606086015160001a61116788828585611241565b955095509550505050611181565b50508151600091506002905b9250925092565b600082600381111561119c5761119c6113d9565b036111a5575050565b60018260038111156111b9576111b96113d9565b036111d75760405163f645eedf60e01b815260040160405180910390fd5b60028260038111156111eb576111eb6113d9565b0361120c5760405163fce698f760e01b815260048101829052602401610430565b6003826003811115611220576112206113d9565b03610846576040516335e2f38360e21b815260048101829052602401610430565b600080807f7fffffffffffffffffffffffffffffff5d576e7357a4501ddfe92f46681b20a084111561127c5750600091506003905082611306565b604080516000808252602082018084528a905260ff891692820192909252606081018790526080810186905260019060a0016020604051602081039080840390855afa1580156112d0573d6000803e3d6000fd5b5050604051601f1901519150506001600160a01b0381166112fc57506000925060019150829050611306565b9250600091508190505b9450945094915050565b634e487b7160e01b600052601160045260246000fd5b80820180821115610aa557610aa5611310565b60006020828403121561134b57600080fd5b5035919050565b83815260406020820152816040820152818360608301376000818301606090810191909152601f909201601f1916010192915050565b80356001600160a01b038116811461139f57600080fd5b919050565b6000806000606084860312156113b957600080fd5b83359250602084013591506113d060408501611388565b90509250925092565b634e487b7160e01b600052602160045260246000fd5b888152602081018890526001600160a01b03878116604083015286811660608301526101008201906004871061143557634e487b7160e01b600052602160045260246000fd5b86608084015280861660a0840152508360c08301528260e08301529998505050505050505050565b6000806040838503121561147057600080fd5b61147983611388565b946020939093013593505050565b6000806040838503121561149a57600080fd5b823591506114aa60208401611388565b90509250929050565b6000602082840312156114c557600080fd5b6114ce82611388565b9392505050565b600080600080606085870312156114eb57600080fd5b843593506114fb60208601611388565b9250604085013567ffffffffffffffff8082111561151857600080fd5b818701915087601f83011261152c57600080fd5b81358181111561153b57600080fd5b88602082850101111561154d57600080fd5b95989497505060200194505050565b6020808252825182820181905260009190848201906040850190845b8181101561159d5783516001600160a01b031683529284019291840191600101611578565b50909695505050505050565b6020808252600890820152673737ba1037b832b760c11b604082015260600190565b6020808252600b908201526a1a9bda5b8818db1bdcd95960aa1b604082015260600190565b6020808252600e908201526d185b1c9958591e481a9bda5b995960921b604082015260600190565b60006001820161162a5761162a611310565b5060010190565b81810381811115610aa557610aa5611310565b634e487b7160e01b600052603260045260246000fdfea2646970667358221220dfd552b38971af46f55bd761f94392851ba9cfbf026d8e73fd9733fdb0e5f79264736f6c63430008180033",
  "linkReferences": {},
  "deployedLinkReferences": {}
}