{"contracts/RaceEscrow.sol":{"RaceEscrow":{"abi":[{"inputs":[{"internalType":"string","name":"name","type":"string"},{"internalType":"string","name":"version","type":"string"}],"stateMutability":"nonpayable","type":"constructor"},{"inputs":[],"name":"ECDSAInvalidSignature","type":"error"},{"inputs":[{"internalType":"uint256","name":"length","type":"uint256"}],"name":"ECDSAInvalidSignatureLength","type":"error"},{"inputs":[{"internalType":"bytes32","name":"s","type":"bytes32"}],"name":"ECDSAInvalidSignatureS","type":"error"},{"inputs":[],"name":"ReentrancyGuardReentrantCall","type":"error"},{"anonymous":false,"inputs":[{"indexed":true,"internalType":"uint256","name":"raceId","type":"uint256"}],"name":"Closed","type":"event"},{"anonymous":false,"inputs":[{"indexed":true,"internalType":"uint256","name":"raceId","type":"uint256"},{"indexed":true,"internalType":"address","name":"from","type":"address"},{"indexed":false,"internalType":"uint256","name":"amount","type":"uint256"}],"name":"Deposited","type":"event"},{"anonymous":false,"inputs":[{"indexed":true,"internalType":"address","name":"from","type":"address"},{"indexed":false,"internalType":"uint256","name":"amount","type":"uint256"}],"name":"DirectDeposit","type":"event"},{"anonymous":false,"inputs":[{"indexed":true,"internalType":"address","name":"from","type":"address"},{"indexed":false,"internalType":"uint256","name":"amount","type":"uint256"},{"indexed":false,"internalType":"bytes","name":"data","type":"bytes"}],"name":"FallbackDeposit","type":"event"},{"anonymous":false,"inputs":[{"indexed":true,"internalType":"uint256","name":"raceId","type":"uint256"},{"indexed":true,"internalType":"address","name":"runner","type":"address"}],"name":"Joined","type":"event"},{"anonymous":false,"inputs":[{"indexed":true,"internalType":"uint256","name":"raceId","type":"uint256"},{"indexed":false,"internalType":"uint256","name":"stakeWei","type":"uint256"},{"indexed":false,"internalType":"uint256","name":"joinDeadline","type":"uint256"},{"indexed":false,"internalType":"address","name":"organizer","type":"address"}],"name":"RaceCreated","type":"event"},{"anonymous":false,"inputs":[{"indexed":true,"internalType":"uint256","name":"raceId","type":"uint256"}],"name":"Refunded","type":"event"},{"anonymous":false,"inputs":[{"indexed":true,"internalType":"uint256","name":"raceId","type":"uint256"},{"indexed":true,"internalType":"address","name":"winner","type":"address"},{"indexed":false,"internalType":"uint256","name":"amount","type":"uint256"}],"name":"Resolved","type":"event"},{"stateMutability":"payable","type":"fallback"},{"inputs":[{"internalType":"uint256","name":"raceId","type":"uint256"}],"name":"claimToRace","outputs":[],"stateMutability":"nonpayable","type":"function"},{"inputs":[{"internalType":"address","name":"user","type":"address"},{"internalType":"uint256","name":"raceId","type":"uint256"}],"name":"claimToRaceFor","outputs":[],"stateMutability":"nonpayable","type":"function"},{"inputs":[{"internalType":"uint256","name":"raceId","type":"uint256"}],"name":"closeJoin","outputs":[],"stateMutability":"nonpayable","type":"function"},{"inputs":[{"internalType":"uint256","name":"stakeWei","type":"uint256"},{"internalType":"uint256","name":"joinWindowSeconds","type":"uint256"},{"internalType":"address","name":"resultSigner","type":"address"}],"name":"createRace","outputs":[{"internalType":"uint256","name":"raceId","type":"uint256"}],"stateMutability":"nonpayable","type":"function"},{"inputs":[{"internalType":"uint256","name":"raceId","type":"uint256"}],"name":"depositToRace","outputs":[],"stateMutability":"payable","type":"function"},{"inputs":[{"internalType":"uint256","name":"raceId","type":"uint256"}],"name":"getRace","outputs":[{"internalType":"uint256","name":"stakeWei","type":"uint256"},{"internalType":"uint256","name":"joinDeadline","type":"uint256"},{"internalType":"address","name":"organizer","type":"address"},{"internalType":"address","name":"resultSigner","type":"address"},{"internalType":"enum RaceEscrow.RaceState","name":"state","type":"uint8"},{"internalType":"address","name":"winner","type":"address"},{"internalType":"uint256","name":"pool","type":"uint256"},{"internalType":"uint256","name":"participantCount","type":"uint256"}],"stateMutability":"view","type":"function"},{"inputs":[{"internalType":"uint256","name":"raceId","type":"uint256"},{"internalType":"address","name":"user","type":"address"}],"name":"hasJoined","outputs":[{"internalType":"bool","name":"","type":"bool"}],"stateMutability":"view","type":"function"},{"inputs":[{"internalType":"uint256","name":"raceId","type":"uint256"}],"name":"joinRace","outputs":[],"stateMutability":"payable","type":"function"},{"inputs":[],"name":"nextRaceId","outputs":[{"internalType":"uint256","name":"","type":"uint256"}],"stateMutability":"view","type":"function"},{"inputs":[],"name":"nonce","outputs":[{"internalType":"uint256","name":"","type":"uint256"}],"stateMutability":"view","type":"function"},{"inputs":[{"internalType":"uint256","name":"raceId","type":"uint256"}],"name":"participantsOf","outputs":[{"internalType":"address[]","name":"","type":"address[]"}],"stateMutability":"view","type":"function"},{"inputs":[{"internalType":"address","name":"","type":"address"}],"name":"pendingCredits","outputs":[{"internalType":"uint256","name":"","type":"uint256"}],"stateMutability":"view","type":"function"},{"inputs":[{"internalType":"uint256","name":"raceId","type":"uint256"}],"name":"refundAll","outputs":[],"stateMutability":"nonpayable","type":"function"},{"inputs":[{"internalType":"uint256","name":"raceId","type":"uint256"},{"internalType":"address","name":"winner","type":"address"},{"internalType":"bytes","name":"signature","type":"bytes"}],"name":"submitResult","outputs":[],"stateMutability":"nonpayable","type":"function"},{"stateMutability":"payable","type":"receive"}],"evm":{"bytecode":{"linkReferences":{},"object":"60a06040523480156200001157600080fd5b506040516200189638038062001896833981016040819052620000349162000180565b60016000558151602080840191909120825183830120604080517f8b73c3c69bb8fe3d512ecc4cf759cc79239f7b179b0ffacaa9a75d522b39400f94810194909452830191909152606082015246608082018190523060a08301529060c00160408051601f19818403018152919052805160209091012060805250620001ea915050565b634e487b7160e01b600052604160045260246000fd5b600082601f830112620000e057600080fd5b81516001600160401b0380821115620000fd57620000fd620000b8565b604051601f8301601f19908116603f01168101908282118183101715620001285762000128620000b8565b81604052838152602092508660208588010111156200014657600080fd5b600091505b838210156200016a57858201830151818301840152908201906200014b565b6000602085830101528094505050505092915050565b600080604083850312156200019457600080fd5b82516001600160401b0380821115620001ac57600080fd5b620001ba86838701620000ce565b93506020850151915080821115620001d157600080fd5b50620001e085828601620000ce565b9150509250929050565b608051611690620002066000396000610bf801526116906000f3fe6080604052600436106100e15760003560e01c8063681947191161007f578063b13bd33911610059578063b13bd33914610361578063d9b8fd8f14610381578063e200c85714610397578063e9fee16f146103c457610142565b806368194719146102ee578063aa3534021461031e578063affed0e01461034b57610142565b8063156ed2ca116100bb578063156ed2ca1461029b578063276c1ee5146102bb57806331d21c5b146102db57806350c95171146102db57610142565b80630c296b89146101c05780630d71aba5146101f35780630e6ef62f1461027b57610142565b36610142573360009081526004602052604081208054349290610105908490611326565b909155505060405134815233907fe7b3b57577ad57e4de60cc81cd73456448c8cfb13bad2904338c9988b274bbae906020015b60405180910390a2005b366020036101655760006101563682611339565b90506101638133346103e4565b005b3360009081526004602052604081208054349290610184908490611326565b909155505060405133907fe1769a885c9188c6966b88eb9621edeba30b94279ca482317b622996717231d2906101389034906000903690611352565b3480156101cc57600080fd5b506101e06101db3660046113a4565b6105bc565b6040519081526020015b60405180910390f35b3480156101ff57600080fd5b5061026761020e366004611339565b60009081526003602081905260409091208054600182015460028301549383015460048401546005850154600790950154939692956001600160a01b039081169581841695600160a01b90940460ff1694919092169290565b6040516101ea9897969594939291906113ef565b34801561028757600080fd5b5061016361029636600461145d565b6106ee565b3480156102a757600080fd5b506101636102b6366004611339565b61084a565b3480156102c757600080fd5b506101636102d6366004611339565b61091e565b6101636102e9366004611339565b610a5e565b3480156102fa57600080fd5b5061030e610309366004611487565b610a7b565b60405190151581526020016101ea565b34801561032a57600080fd5b506101e06103393660046114b3565b60046020526000908152604090205481565b34801561035757600080fd5b506101e060015481565b34801561036d57600080fd5b5061016361037c3660046114d5565b610aab565b34801561038d57600080fd5b506101e060025481565b3480156103a357600080fd5b506103b76103b2366004611339565b610e18565b6040516101ea919061155c565b3480156103d057600080fd5b506101636103df366004611339565b610e87565b600083815260036020526040812090600382810154600160a01b900460ff1690811115610413576104136113d9565b146104395760405162461bcd60e51b8152600401610430906115a9565b60405180910390fd5b806001015442111561045d5760405162461bcd60e51b8152600401610430906115cb565b8054821461049b5760405162461bcd60e51b815260206004820152600b60248201526a77726f6e67207374616b6560a81b6044820152606401610430565b6001600160a01b038316600090815260068201602052604090205460ff16156104d65760405162461bcd60e51b8152600401610430906115f0565b6001600160a01b038316600081815260068301602090815260408220805460ff19166001908117909155600785018054918201815583529082200180546001600160a01b031916909217909155600582018054849290610537908490611326565b90915550506040516001600160a01b0384169085907fc0081eeafa0d002abcd7d58d84b6e688d1526b9c3d915a282212ba08c49a17a790600090a3826001600160a01b0316847f1599c0fcf897af5babc2bfcf707f5dc050f841b044d97c3251ecec35b9abf80b846040516105ae91815260200190565b60405180910390a350505050565b60008084116105f75760405162461bcd60e51b815260206004820152600760248201526607374616b653d360cc1b6044820152606401610430565b6001600160a01b0382166106385760405162461bcd60e51b815260206004820152600860248201526707369676e65723d360c41b6044820152606401610430565b6002805490600061064883611618565b90915550600081815260036020526040902085815590915061066a8442611326565b600182018190556002820180546001600160a01b031916339081179091556003830180546001600160a81b0319166001600160a01b03871617905560408051888152602081019390935282015282907f1a733ed4aef3b43db3775d1b55f6048d6764cdaca701ea785cf87be5e0893fa99060600160405180910390a2509392505050565b6106f66110e7565b600081815260036020526040812090600382810154600160a01b900460ff1690811115610725576107256113d9565b146107425760405162461bcd60e51b8152600401610430906115a9565b80600101544211156107665760405162461bcd60e51b8152600401610430906115cb565b80546001600160a01b0384166000908152600460205260409020548111156107c65760405162461bcd60e51b81526020600482015260136024820152721a5b9cdd59999a58da595b9d0818dc99591a5d606a1b6044820152606401610430565b6001600160a01b038416600090815260068301602052604090205460ff16156108015760405162461bcd60e51b8152600401610430906115f0565b6001600160a01b03841660009081526004602052604081208054839290610829908490611631565b9091555061083a90508385836103e4565b50506108466001600055565b5050565b600081815260036020526040812090600382810154600160a01b900460ff1690811115610879576108796113d9565b146108965760405162461bcd60e51b8152600401610430906115a9565b806001015442116108da5760405162461bcd60e51b815260206004820152600e60248201526d7374696c6c206a6f696e61626c6560901b6044820152606401610430565b60038101805460ff60a01b1916600160a01b17905560405182907f6cc09e7b5c3e49861ebe8f6867e1618fbfc14c8d0e968fde37c4243ca02a6f8390600090a25050565b6109266110e7565b600081815260036020526040812090600382810154600160a01b900460ff1690811115610955576109556113d9565b146109725760405162461bcd60e51b8152600401610430906115a9565b80600101544211156109965760405162461bcd60e51b8152600401610430906115cb565b8054336000908152600460205260409020548111156109ed5760405162461bcd60e51b81526020600482015260136024820152721a5b9cdd59999a58da595b9d0818dc99591a5d606a1b6044820152606401610430565b33600090815260068301602052604090205460ff1615610a1f5760405162461bcd60e51b8152600401610430906115f0565b3360009081526004602052604081208054839290610a3e908490611631565b90915550610a4f90508333836103e4565b5050610a5b6001600055565b50565b610a666110e7565b610a718133346103e4565b610a5b6001600055565b60008281526003602090815260408083206001600160a01b038516845260060190915290205460ff165b92915050565b610ab36110e7565b60008481526003602052604090206001600382810154600160a01b900460ff1690811115610ae357610ae36113d9565b14610b1d5760405162461bcd60e51b815260206004820152600a6024820152691b9bdd0818db1bdcd95960b21b6044820152606401610430565b6001600160a01b038416600090815260068201602052604090205460ff16610b805760405162461bcd60e51b81526020600482015260166024820152751dda5b9b995c881b9bdd081c185c9d1a58da5c185b9d60521b6044820152606401610430565b600154604080517f4adc2572cd3e5132beb0984cc599c0df6973bedc3d6b61061a852fa34ccbd23160208201529081018790526001600160a01b0386166060820152608081019190915260009060a00160408051601f1981840301815290829052805160209182012061190160f01b918301919091527f000000000000000000000000000000000000000000000000000000000000000060228301526042820181905291506000906062016040516020818303038152906040528051906020012090506000610c858287878080601f01602080910402602001604051908101604052809392919081815260200183838082843760009201919091525061111192505050565b60038501549091506001600160a01b03808316911614610cd75760405162461bcd60e51b815260206004820152600d60248201526c626164207369676e617475726560981b6044820152606401610430565b60058401805460009182905560038601805460ff60a01b1916600160a11b1790556004860180546001600160a01b0319166001600160a01b038b16179055600180549192610d2483611618565b91905055506000886001600160a01b03168260405160006040518083038185875af1925050503d8060008114610d76576040519150601f19603f3d011682016040523d82523d6000602084013e610d7b565b606091505b5050905080610dbe5760405162461bcd60e51b815260206004820152600f60248201526e1d1c985b9cd9995c8819985a5b1959608a1b6044820152606401610430565b886001600160a01b03168a7f97edf642b74402b9b5b06c1324b9fff512b4fee8ef46e2d28e465de88b35fe8c84604051610dfa91815260200190565b60405180910390a3505050505050610e126001600055565b50505050565b600081815260036020908152604091829020600701805483518184028101840190945280845260609392830182828015610e7b57602002820191906000526020600020905b81546001600160a01b03168152600190910190602001808311610e5d575b50505050509050919050565b610e8f6110e7565b60008181526003602052604090206001600382810154600160a01b900460ff1690811115610ebf57610ebf6113d9565b1480610eea57506000600382810154600160a01b900460ff1690811115610ee857610ee86113d9565b145b610f275760405162461bcd60e51b815260206004820152600e60248201526d6e6f7420726566756e6461626c6560901b6044820152606401610430565b60028101546001600160a01b03163314610f735760405162461bcd60e51b815260206004820152600d60248201526c3737ba1037b933b0b734bd32b960991b6044820152606401610430565b60038101805460ff60a01b1916600360a01b1790556007810154815460005b828110156110ae576000846007018281548110610fb157610fb1611644565b60009182526020808320909101546001600160a01b03168083526006880190915260409091205490915060ff16156110a5576001600160a01b0381166000818152600687016020526040808220805460ff191690555190919085908381818185875af1925050503d8060008114611044576040519150601f19603f3d011682016040523d82523d6000602084013e611049565b606091505b505090508061108a5760405162461bcd60e51b815260206004820152600d60248201526c1c99599d5b990819985a5b1959609a1b6044820152606401610430565b8386600501600082825461109e9190611631565b9091555050505b50600101610f92565b5060405184907f3d2a04f53164bedf9a8a46353305d6b2d2261410406df3b41f99ce6489dc003c90600090a2505050610a5b6001600055565b60026000540361110a57604051633ee5aeb560e01b815260040160405180910390fd5b6002600055565b600080600080611121868661113b565b9250925092506111318282611188565b5090949350505050565b600080600083516041036111755760208401516040850151606086015160001a61116788828585611241565b955095509550505050611181565b50508151600091506002905b9250925092565b600082600381111561119c5761119c6113d9565b036111a5575050565b60018260038111156111b9576111b96113d9565b036111d75760405163f645eedf60e01b815260040160405180910390fd5b60028260038111156111eb576111eb6113d9565b0361120c5760405163fce698f760e01b815260048101829052602401610430565b6003826003811115611220576112206113d9565b03610846576040516335e2f38360e21b815260048101829052602401610430565b600080807f7fffffffffffffffffffffffffffffff5d576e7357a4501ddfe92f46681b20a084111561127c5750600091506003905082611306565b604080516000808252602082018084528a905260ff891692820192909252606081018790526080810186905260019060a0016020604051602081039080840390855afa1580156112d0573d6000803e3d6000fd5b5050604051601f1901519150506001600160a01b0381166112fc57506000925060019150829050611306565b9250600091508190505b9450945094915050565b634e487b7160e01b600052601160045260246000fd5b80820180821115610aa557610aa5611310565b60006020828403121561134b57600080fd5b5035919050565b83815260406020820152816040820152818360608301376000818301606090810191909152601f909201601f1916010192915050565b80356001600160a01b038116811461139f57600080fd5b919050565b6000806000606084860312156113b957600080fd5b83359250602084013591506113d060408501611388565b90509250925092565b634e487b7160e01b600052602160045260246000fd5b888152602081018890526001600160a01b03878116604083015286811660608301526101008201906004871061143557634e487b7160e01b600052602160045260246000fd5b86608084015280861660a0840152508360c08301528260e08301529998505050505050505050565b6000806040838503121561147057600080fd5b61147983611388565b946020939093013593505050565b6000806040838503121561149a57600080fd5b823591506114aa60208401611388565b90509250929050565b6000602082840312156114c557600080fd5b6114ce82611388565b9392505050565b600080600080606085870312156114eb57600080fd5b843593506114fb60208601611388565b9250604085013567ffffffffffffffff8082111561151857600080fd5b818701915087601f83011261152c57600080fd5b81358181111561153b57600080fd5b88602082850101111561154d57600080fd5b95989497505060200194505050565b6020808252825182820181905260009190848201906040850190845b8181101561159d5783516001600160a01b031683529284019291840191600101611578565b50909695505050505050565b6020808252600890820152673737ba1037b832b760c11b604082015260600190565b6020808252600b908201526a1a9bda5b8818db1bdcd95960aa1b604082015260600190565b6020808252600e908201526d185b1c9958591e481a9bda5b995960921b604082015260600190565b60006001820161162a5761162a611310565b5060010190565b81810381811115610aa557610aa5611310565b634e487b7160e01b600052603260045260246000fdfea2646970667358221220dfd552b38971af46f55bd761f94392851ba9cfbf026d8e73fd9733fdb0e5f79264736f6c63430008180033","opcodes":"PUSH1 0xA0 PUSH1 0x40 MSTORE CALLVALUE DUP1 ISZERO PUSH3 0x11 JUMPI PUSH1 0x0 DUP1 REVERT JUMPDEST POP PUSH1 0x40 MLOAD PUSH3 0x1896 CODESIZE SUB DUP1 PUSH3 0x1896 DUP4 CODECOPY DUP2 ADD PUSH1 0x40 DUP2 SWAP1 MSTORE PUSH3 0x34 SWAP2 PUSH3 0x180 JUMP JUMPDEST PUSH1 0x1 PUSH1 0x0 SSTORE DUP2 MLOAD PUSH1 0x20 DUP1 DUP5 ADD SWAP2 SWAP1 SWAP2 KECCAK256 DUP3 MLOAD DUP4 DUP4 ADD KECCAK256 PUSH1 0x40 DUP1 MLOAD PUSH32 0x8B73C3C69BB8FE3D512ECC4CF759CC79239F7B179B0FFACAA9A75D522B39400F SWAP5 DUP2 ADD SWAP5 SWAP1 SWAP5 MSTORE DUP4 ADD SWAP2 SWAP1 SWAP2 MSTORE PUSH1 0x60 DUP3 ADD MSTORE CHAINID PUSH1 0x80 DUP3 ADD DUP2 SWAP1 MSTORE ADDRESS PUSH1 0xA0 DUP4 ADD MSTORE SWAP1 PUSH1 0xC0 ADD PUSH1 0x40 DUP1 MLOAD PUSH1 0x1F NOT DUP2 DUP5 SUB ADD DUP2 MSTORE SWAP2 SWAP1 MSTORE DUP1 MLOAD PUSH1 0x20 SWAP1 SWAP2 ADD KECCAK256 PUSH1 0x80 MSTORE POP PUSH3 0x1EA SWAP2 POP POP JUMP JUMPDEST PUSH4 0x4E487B71 PUSH1 0xE0 SHL PUSH1 0x0 MSTORE PUSH1 0x41 PUSH1 0x4 MSTORE PUSH1 0x24 PUSH1 0x0 REVERT JUMPDEST PUSH1 0x0 DUP3 PUSH1 0x1F DUP4 ADD SLT PUSH3 0xE0 JUMPI PUSH1 0x0 DUP1 REVERT JUMPDEST DUP2 MLOAD PUSH1 0x1 PUSH1 0x1 PUSH1 0x40 SHL SUB DUP1 DUP3 GT ISZERO PUSH3 0xFD JUMPI PUSH3 0xFD PUSH3 0xB8 JUMP JUMPDEST PUSH1 0x40 MLOAD PUSH1 0x1F DUP4 ADD PUSH1 0x1F NOT SWAP1 DUP2 AND PUSH1 0x3F ADD AND DUP2 ADD SWAP1 DUP3 DUP3 GT DUP2 DUP4 LT OR ISZERO PUSH3 0x128 JUMPI PUSH3 0x128 PUSH3 0xB8 JUMP JUMPDEST DUP2 PUSH1 0x40 MSTORE DUP4 DUP2 MSTORE PUSH1 0x20 SWAP3 POP DUP7 PUSH1 0x20 DUP6 DUP9 ADD ADD GT ISZERO PUSH3 0x146 JUMPI PUSH1 0x0 DUP1 REVERT JUMPDEST PUSH1 0x0 SWAP2 POP JUMPDEST DUP4 DUP3 LT ISZERO PUSH3 0x16A JUMPI DUP6 DUP3 ADD DUP4 ADD MLOAD DUP2 DUP4 ADD DUP5 ADD MSTORE SWAP1 DUP3 ADD SWAP1 PUSH3 0x14B JUMP JUMPDEST PUSH1 0x0 PUSH1 0x20 DUP6 DUP4 ADD ADD MSTORE DUP1 SWAP5 POP POP POP POP POP SWAP3 SWAP2 POP POP JUMP JUMPDEST PUSH1 0x0 DUP1 PUSH1 0x40 DUP4 DUP6 SUB SLT ISZERO PUSH3 0x194 JUMPI PUSH1 0x0 DUP1 REVERT JUMPDEST DUP3 MLOAD PUSH1 0x1 PUSH1 0x1 PUSH1 0x40 SHL SUB DUP1 DUP3 GT ISZERO PUSH3 0x1AC JUMPI PUSH1 0x0 DUP1 REVERT JUMPDEST PUSH3 0x1BA DUP7 DUP4 DUP8 ADD PUSH3 0xCE JUMP JUMPDEST SWAP4 POP PUSH1 0x20 DUP6 ADD MLOAD SWAP2 POP DUP1 DUP3 GT ISZERO PUSH3 0x1D1 JUMPI PUSH1 0x0 DUP1 REVERT JUMPDEST POP PUSH3 0x1E0 DUP6 DUP3 DUP7 ADD PUSH3 0xCE JUMP JUMPDEST SWAP2 POP POP SWAP3 POP SWAP3 SWAP1 POP JUMP JUMPDEST PUSH1 0x80 MLOAD PUSH2 0x1690 PUSH3 0x206 PUSH1 0x0 CODECOPY PUSH1 0x0 PUSH2 0xBF8 ADD MSTORE PUSH2 0x1690 PUSH1 0x0 RETURN INVALID PUSH1 0x80 PUSH1 0x40 MSTORE PUSH1 0x4 CALLDATASIZE LT PUSH2 0xE1 JUMPI PUSH1 0x0 CALLDATALOAD PUSH1 0xE0 SHR DUP1 PUSH4 0x68194719 GT PUSH2 0x7F JUMPI DUP1 PUSH4 0xB13BD339 GT PUSH2 0x59 JUMPI DUP1 PUSH4 0xB13BD339 EQ PUSH2 0x361 JUMPI DUP1 PUSH4 0xD9B8FD8F EQ PUSH2 0x381 JUMPI DUP1 PUSH4 0xE200C857 EQ PUSH2 0x397 JUMPI DUP1 PUSH4 0xE9FEE16F EQ PUSH2 0x3C4 JUMPI PUSH2 0x142 JUMP JUMPDEST DUP1 PUSH4 0x68194719 EQ PUSH2 0x2EE JUMPI DUP1 PUSH4 0xAA353402 EQ PUSH2 0x31E JUMPI DUP1 PUSH4 0xAFFED0E0 EQ PUSH2 0x34B JUMPI PUSH2 0x142 JUMP JUMPDEST DUP1 PUSH4 0x156ED2CA GT PUSH2 0xBB JUMPI DUP1 PUSH4 0x156ED2CA EQ PUSH2 0x29B JUMPI DUP1 PUSH4 0x276C1EE5 EQ PUSH2 0x2BB JUMPI DUP1 PUSH4 0x31D21C5B EQ PUSH2 0x2DB JUMPI DUP1 PUSH4 0x50C95171 EQ PUSH2 0x2DB JUMPI PUSH2 0x142 JUMP JUMPDEST DUP1 PUSH4 0xC296B89 EQ PUSH2 0x1C0 JUMPI DUP1 PUSH4 0xD71ABA5 EQ PUSH2 0x1F3 JUMPI DUP1 PUSH4 0xE6EF62F EQ PUSH2 0x27B JUMPI PUSH2 0x142 JUMP JUMPDEST CALLDATASIZE PUSH2 0x142 JUMPI CALLER PUSH1 0x0 SWAP1 DUP2 MSTORE PUSH1 0x4 PUSH1 0x20 MSTORE PUSH1 0x40 DUP2 KECCAK256 DUP1 SLOAD CALLVALUE SWAP3 SWAP1 PUSH2 0x105 SWAP1 DUP5 SWAP1 PUSH2 0x1326 JUMP JUMPDEST SWAP1 SWAP2 SSTORE POP POP PUSH1 0x40 MLOAD CALLVALUE DUP2 MSTORE CALLER SWAP1 PUSH32 0xE7B3B57577AD57E4DE60CC81CD73456448C8CFB13BAD2904338C9988B274BBAE SWAP1 PUSH1 0x20 ADD JUMPDEST PUSH1 0x40 MLOAD DUP1 SWAP2 SUB SWAP1 LOG2 STOP JUMPDEST CALLDATASIZE PUSH1 0x20 SUB PUSH2 0x165 JUMPI PUSH1 0x0 PUSH2 0x156 CALLDATASIZE DUP3 PUSH2 0x1339 JUMP JUMPDEST SWAP1 POP PUSH2 0x163 DUP2 CALLER CALLVALUE PUSH2 0x3E4 JUMP JUMPDEST STOP JUMPDEST CALLER PUSH1 0x0 SWAP1 DUP2 MSTORE PUSH1 0x4 PUSH1 0x20 MSTORE PUSH1 0x40 DUP2 KECCAK256 DUP1 SLOAD CALLVALUE SWAP3 SWAP1 PUSH2 0x184 SWAP1 DUP5 SWAP1 PUSH2 0x1326 JUMP JUMPDEST SWAP1 SWAP2 SSTORE POP POP PUSH1 0x40 MLOAD CALLER SWAP1 PUSH32 0xE1769A885C9188C6966B88EB9621EDEBA30B94279CA482317B622996717231D2 SWAP1 PUSH2 0x138 SWAP1 CALLVALUE SWAP1 PUSH1 0x0 SWAP1 CALLDATASIZE SWAP1 PUSH2 0x1352 JUMP JUMPDEST CALLVALUE DUP1 ISZERO PUSH2 0x1CC JUMPI PUSH1 0x0 DUP1 REVERT JUMPDEST POP PUSH2 0x1E0 PUSH2 0x1DB CALLDATASIZE PUSH1 0x4 PUSH2 0x13A4 JUMP JUMPDEST PUSH2 0x5BC JUMP JUMPDEST PUSH1 0x40 MLOAD SWAP1 DUP2 MSTORE PUSH1 0x20 ADD JUMPDEST PUSH1 0x40 MLOAD DUP1 SWAP2 SUB SWAP1 RETURN JUMPDEST CALLVALUE DUP1 ISZERO PUSH2 0x1FF JUMPI PUSH1 0x0 DUP1 REVERT JUMPDEST POP PUSH2 0x267 PUSH2 0x20E CALLDATASIZE PUSH1 0x4 PUSH2 0x1339 JUMP JUMPDEST PUSH1 0x0 SWAP1 DUP2 MSTORE PUSH1 0x3 PUSH1 0x20 DUP2 SWAP1 MSTORE PUSH1 0x40 SWAP1 SWAP2 KECCAK256 DUP1 SLOAD PUSH1 0x1 DUP3 ADD SLOAD PUSH1 0x2 DUP4 ADD SLOAD SWAP4 DUP4 ADD SLOAD PUSH1 0x4 DUP5 ADD SLOAD PUSH1 0x5 DUP6 ADD SLOAD PUSH1 0x7 SWAP1 SWAP6 ADD SLOAD SWAP4 SWAP7 SWAP3 SWAP6 PUSH1 0x1 PUSH1 0x1 PUSH1 0xA0 SHL SUB SWAP1 DUP2 AND SWAP6 DUP2 DUP5 AND SWAP6 PUSH1 0x1 PUSH1 0xA0 SHL SWAP1 SWAP5 DIV PUSH1 0xFF AND SWAP5 SWAP2 SWAP1 SWAP3 AND SWAP3 SWAP1 JUMP JUMPDEST PUSH1 0x40 MLOAD PUSH2 0x1EA SWAP9 SWAP8 SWAP7 SWAP6 SWAP5 SWAP4 SWAP3 SWAP2 SWAP1 PUSH2 0x13EF JUMP JUMPDEST CALLVALUE DUP1 ISZERO PUSH2 0x287 JUMPI PUSH1 0x0 DUP1 REVERT JUMPDEST POP PUSH2 0x163 PUSH2 0x296 CALLDATASIZE PUSH1 0x4 PUSH2 0x145D JUMP JUMPDEST PUSH2 0x6EE JUMP JUMPDEST CALLVALUE DUP1 ISZERO PUSH2 0x2A7 JUMPI PUSH1 0x0 DUP1 REVERT JUMPDEST POP PUSH2 0x163 PUSH2 0x2B6 CALLDATASIZE PUSH1 0x4 PUSH2 0x1339 JUMP JUMPDEST PUSH2 0x84A JUMP JUMPDEST CALLVALUE DUP1 ISZERO PUSH2 0x2C7 JUMPI PUSH1 0x0 DUP1 REVERT JUMPDEST POP PUSH2 0x163 PUSH2 0x2D6 CALLDATASIZE PUSH1 0x4 PUSH2 0x1339 JUMP JUMPDEST PUSH2 0x91E JUMP JUMPDEST PUSH2 0x163 PUSH2 0x2E9 CALLDATASIZE PUSH1 0x4 PUSH2 0x1339 JUMP JUMPDEST PUSH2 0xA5E JUMP JUMPDEST CALLVALUE DUP1 ISZERO PUSH2 0x2FA JUMPI PUSH1 0x0 DUP1 REVERT JUMPDEST POP PUSH2 0x30E PUSH2 0x309 CALLDATASIZE PUSH1 0x4 PUSH2 0x1487 JUMP JUMPDEST PUSH2 0xA7B JUMP JUMPDEST PUSH1 0x40 MLOAD SWAP1 ISZERO ISZERO DUP2 MSTORE PUSH1 0x20 ADD PUSH2 0x1EA JUMP JUMPDEST CALLVALUE DUP1 ISZERO PUSH2 0x32A JUMPI PUSH1 0x0 DUP1 REVERT JUMPDEST POP PUSH2 0x1E0 PUSH2 0x339 CALLDATASIZE PUSH1 0x4 PUSH2 0x14B3 JUMP JUMPDEST PUSH1 0x4 PUSH1 0x20 MSTORE PUSH1 0x0 SWAP1 DUP2 MSTORE PUSH1 0x40 SWAP1 KECCAK256 SLOAD DUP2 JUMP JUMPDEST CALLVALUE DUP1 ISZERO PUSH2 0x357 JUMPI PUSH1 0x0 DUP1 REVERT JUMPDEST POP PUSH2 0x1E0 PUSH1 0x1 SLOAD DUP2 JUMP JUMPDEST CALLVALUE DUP1 ISZERO PUSH2 0x36D JUMPI PUSH1 0x0 DUP1 REVERT JUMPDEST POP PUSH2 0x163 PUSH2 0x37C CALLDATASIZE PUSH1 0x4 PUSH2 0x14D5 JUMP JUMPDEST PUSH2 0xAAB JUMP JUMPDEST CALLVALUE DUP1 ISZERO PUSH2 0x38D JUMPI PUSH1 0x0 DUP1 REVERT JUMPDEST POP PUSH2 0x1E0 PUSH1 0x2 SLOAD DUP2 JUMP JUMPDEST CALLVALUE DUP1 ISZERO PUSH2 0x3A3 JUMPI PUSH1 0x0 DUP1 REVERT JUMPDEST POP PUSH2 0x3B7 PUSH2 0x3B2 CALLDATASIZE PUSH1 0x4 PUSH2 0x1339 JUMP JUMPDEST PUSH2 0xE18 JUMP JUMPDEST PUSH1 0x40 MLOAD PUSH2 0x1EA SWAP2 SWAP1 PUSH2 0x155C JUMP JUMPDEST CALLVALUE DUP1 ISZERO PUSH2 0x3D0 JUMPI PUSH1 0x0 DUP1 REVERT JUMPDEST POP PUSH2 0x163 PUSH2 0x3DF CALLDATASIZE PUSH1 0x4 PUSH2 0x1339 JUMP JUMPDEST PUSH2 0xE87 JUMP JUMPDEST PUSH1 0x0 DUP4 DUP2 MSTORE PUSH1 0x3 PUSH1 0x20 MSTORE PUSH1 0x40 DUP2 KECCAK256 SWAP1 PUSH1 0x3 DUP3 DUP2 ADD SLOAD PUSH1 0x1 PUSH1 0xA0 SHL SWAP1 DIV PUSH1 0xFF AND SWAP1 DUP2 GT ISZERO PUSH2 0x413 JUMPI PUSH2 0x413 PUSH2 0x13D9 JUMP JUMPDEST EQ PUSH2 0x439 JUMPI PUSH1 0x40 MLOAD PUSH3 0x461BCD PUSH1 0xE5 SHL DUP2 MSTORE PUSH1 0x4 ADD PUSH2 0x430 SWAP1 PUSH2 0x15A9 JUMP JUMPDEST PUSH1 0x40 MLOAD DUP1 SWAP2 SUB SWAP1 REVERT JUMPDEST DUP1 PUSH1 0x1 ADD SLOAD TIMESTAMP GT ISZERO PUSH2 0x45D JUMPI PUSH1 0x40 MLOAD PUSH3 0x461BCD PUSH1 0xE5 SHL DUP2 MSTORE PUSH1 0x4 ADD PUSH2 0x430 SWAP1 PUSH2 0x15CB JUMP JUMPDEST DUP1 SLOAD DUP3 EQ PUSH2 0x49B JUMPI PUSH1 0x40 MLOAD PUSH3 0x461BCD PUSH1 0xE5 SHL DUP2 MSTORE PUSH1 0x20 PUSH1 0x4 DUP3 ADD MSTORE PUSH1 0xB PUSH1 0x24 DUP3 ADD MSTORE PUSH11 0x77726F6E67207374616B65 PUSH1 0xA8 SHL PUSH1 0x44 DUP3 ADD MSTORE PUSH1 0x64 ADD PUSH2 0x430 JUMP JUMPDEST PUSH1 0x1 PUSH1 0x1 PUSH1 0xA0 SHL SUB DUP4 AND PUSH1 0x0 SWAP1 DUP2 MSTORE PUSH1 0x6 DUP3 ADD PUSH1 0x20 MSTORE PUSH1 0x40 SWAP1 KECCAK256 SLOAD PUSH1 0xFF AND ISZERO PUSH2 0x4D6 JUMPI PUSH1 0x40 MLOAD PUSH3 0x461BCD PUSH1 0xE5 SHL DUP2 MSTORE PUSH1 0x4 ADD PUSH2 0x430 SWAP1 PUSH2 0x15F0 JUMP JUMPDEST PUSH1 0x1 PUSH1 0x1 PUSH1 0xA0 SHL SUB DUP4 AND PUSH1 0x0 DUP2 DUP2 MSTORE PUSH1 0x6 DUP4 ADD PUSH1 0x20 SWAP1 DUP2 MSTORE PUSH1 0x40 DUP3 KECCAK256 DUP1 SLOAD PUSH1 0xFF NOT AND PUSH1 0x1 SWAP1 DUP2 OR SWAP1 SWAP2 SSTORE PUSH1 0x7 DUP6 ADD DUP1 SLOAD SWAP2 DUP3 ADD DUP2 SSTORE DUP4 MSTORE SWAP1 DUP3 KECCAK256 ADD DUP1 SLOAD PUSH1 0x1 PUSH1 0x1 PUSH1 0xA0 SHL SUB NOT AND SWAP1 SWAP3 OR SWAP1 SWAP2 SSTORE PUSH1 0x5 DUP3 ADD DUP1 SLOAD DUP5 SWAP3 SWAP1 PUSH2 0x537 SWAP1 DUP5 SWAP1 PUSH2 0x1326 JUMP JUMPDEST SWAP1 SWAP2 SSTORE POP POP PUSH1 0x40 MLOAD PUSH1 0x1 PUSH1 0x1 PUSH1 0xA0 SHL SUB DUP5 AND SWAP1 DUP6 SWAP1 PUSH32 0xC0081EEAFA0D002ABCD7D58D84B6E688D1526B9C3D915A282212BA08C49A17A7 SWAP1 PUSH1 0x0 SWAP1 LOG3 DUP3 PUSH1 0x1 PUSH1 0x1 PUSH1 0xA0 SHL SUB AND DUP5 PUSH32 0x1599C0FCF897AF5BABC2BFCF707F5DC050F841B044D97C3251ECEC35B9ABF80B DUP5 PUSH1 0x40 MLOAD PUSH2 0x5AE SWAP2 DUP2 MSTORE PUSH1 0x20 ADD SWAP1 JUMP JUMPDEST PUSH1 0x40 MLOAD DUP1 SWAP2 SUB SWAP1 LOG3 POP POP POP POP JUMP JUMPDEST PUSH1 0x0 DUP1 DUP5 GT PUSH2 0x5F7 JUMPI PUSH1 0x40 MLOAD PUSH3 0x461BCD PUSH1 0xE5 SHL DUP2 MSTORE PUSH1 0x20 PUSH1 0x4 DUP3 ADD MSTORE PUSH1 0x7 PUSH1 0x24 DUP3 ADD MSTORE PUSH7 0x7374616B653D3 PUSH1 0xCC SHL PUSH1 0x44 DUP3 ADD MSTORE PUSH1 0x64 ADD PUSH2 0x430 JUMP JUMPDEST PUSH1 0x1 PUSH1 0x1 PUSH1 0xA0 SHL SUB DUP3 AND PUSH2 0x638 JUMPI PUSH1 0x40 MLOAD PUSH3 0x461BCD PUSH1 0xE5 SHL DUP2 MSTORE PUSH1 0x20 PUSH1 0x4 DUP3 ADD MSTORE PUSH1 0x8 PUSH1 0x24 DUP3 ADD MSTORE PUSH8 0x7369676E65723D3 PUSH1 0xC4 SHL PUSH1 0x44 DUP3 ADD MSTORE PUSH1 0x64 ADD PUSH2 0x430 JUMP JUMPDEST PUSH1 0x2 DUP1 SLOAD SWAP1 PUSH1 0x0 PUSH2 0x648 DUP4 PUSH2 0x1618 JUMP JUMPDEST SWAP1 SWAP2 SSTORE POP PUSH1 0x0 DUP2 DUP2 MSTORE PUSH1 0x3 PUSH1 0x20 MSTORE PUSH1 0x40 SWAP1 KECCAK256 DUP6 DUP2 SSTORE SWAP1 SWAP2 POP PUSH2 0x66A DUP5 TIMESTAMP PUSH2 0x1326 JUMP JUMPDEST PUSH1 0x1 DUP3 ADD DUP2 SWAP1 SSTORE PUSH1 0x2 DUP3 ADD DUP1 SLOAD PUSH1 0x1 PUSH1 0x1 PUSH1 0xA0 SHL SUB NOT AND CALLER SWAP1 DUP2 OR SWAP1 SWAP2 SSTORE PUSH1 0x3 DUP4 ADD DUP1 SLOAD PUSH1 0x1 PUSH1 0x1 PUSH1 0xA8 SHL SUB NOT AND PUSH1 0x1 PUSH1 0x1 PUSH1 0xA0 SHL SUB DUP8 AND OR SWAP1 SSTORE PUSH1 0x40 DUP1 MLOAD DUP9 DUP2 MSTORE PUSH1 0x20 DUP2 ADD SWAP4 SWAP1 SWAP4 MSTORE DUP3 ADD MSTORE DUP3 SWAP1 PUSH32 0x1A733ED4AEF3B43DB3775D1B55F6048D6764CDACA701EA785CF87BE5E0893FA9 SWAP1 PUSH1 0x60 ADD PUSH1 0x40 MLOAD DUP1 SWAP2 SUB SWAP1 LOG2 POP SWAP4 SWAP3 POP POP POP JUMP JUMPDEST PUSH2 0x6F6 PUSH2 0x10E7 JUMP JUMPDEST PUSH1 0x0 DUP2 DUP2 MSTORE PUSH1 0x3 PUSH1 0x20 MSTORE PUSH1 0x40 DUP2 KECCAK256 SWAP1 PUSH1 0x3 DUP3 DUP2 ADD SLOAD PUSH1 0x1 PUSH1 0xA0 SHL SWAP1 DIV PUSH1 0xFF AND SWAP1 DUP2 GT ISZERO PUSH2 0x725 JUMPI PUSH2 0x725 PUSH2 0x13D9 JUMP JUMPDEST EQ PUSH2 0x742 JUMPI PUSH1 0x40 MLOAD PUSH3 0x461BCD PUSH1 0xE5 SHL DUP2 MSTORE PUSH1 0x4 ADD PUSH2 0x430 SWAP1 PUSH2 0x15A9 JUMP JUMPDEST DUP1 PUSH1 0x1 ADD SLOAD TIMESTAMP GT ISZERO PUSH2 0x766 JUMPI PUSH1 0x40 MLOAD PUSH3 0x461BCD PUSH1 0xE5 SHL DUP2 MSTORE PUSH1 0x4 ADD PUSH2 0x430 SWAP1 PUSH2 0x15CB JUMP JUMPDEST DUP1 SLOAD PUSH1 0x1 PUSH1 0x1 PUSH1 0xA0 SHL SUB DUP5 AND PUSH1 0x0 SWAP1 DUP2 MSTORE PUSH1 0x4 PUSH1 0x20 MSTORE PUSH1 0x40 SWAP1 KECCAK256 SLOAD DUP2 GT ISZERO PUSH2 0x7C6 JUMPI PUSH1 0x40 MLOAD PUSH3 0x461BCD PUSH1 0xE5 SHL DUP2 MSTORE PUSH1 0x20 PUSH1 0x4 DUP3 ADD MSTORE PUSH1 0x13 PUSH1 0x24 DUP3 ADD MSTORE PUSH19 0x1A5B9CDD59999A58DA595B9D0818DC99591A5D PUSH1 0x6A SHL PUSH1 0x44 DUP3 ADD MSTORE PUSH1 0x64 ADD PUSH2 0x430 JUMP JUMPDEST PUSH1 0x1 PUSH1 0x1 PUSH1 0xA0 SHL SUB DUP5 AND PUSH1 0x0 SWAP1 DUP2 MSTORE PUSH1 0x6 DUP4 ADD PUSH1 0x20 MSTORE PUSH1 0x40 SWAP1 KECCAK256 SLOAD PUSH1 0xFF AND ISZERO PUSH2 0x801 JUMPI PUSH1 0x40 MLOAD PUSH3 0x461BCD PUSH1 0xE5 SHL DUP2 MSTORE PUSH1 0x4 ADD PUSH2 0x430 SWAP1 PUSH2 0x15F0 JUMP JUMPDEST PUSH1 0x1 PUSH1 0x1 PUSH1 0xA0 SHL SUB DUP5 AND PUSH1 0x0 SWAP1 DUP2 MSTORE PUSH1 0x4 PUSH1 0x20 MSTORE PUSH1 0x40 DUP2 KECCAK256 DUP1 SLOAD DUP4 SWAP3 SWAP1 PUSH2 0x829 SWAP1 DUP5 SWAP1 PUSH2 0x1631 JUMP JUMPDEST SWAP1 SWAP2 SSTORE POP PUSH2 0x83A SWAP1 POP DUP4 DUP6 DUP4 PUSH2 0x3E4 JUMP JUMPDEST POP POP PUSH2 0x846 PUSH1 0x1 PUSH1 0x0 SSTORE JUMP JUMPDEST POP POP JUMP JUMPDEST PUSH1 0x0 DUP2 DUP2 MSTORE PUSH1 0x3 PUSH1 0x20 MSTORE PUSH1 0x40 DUP2 KECCAK256 SWAP1 PUSH1 0x3 DUP3 DUP2 ADD SLOAD PUSH1 0x1 PUSH1 0xA0 SHL SWAP1 DIV PUSH1 0xFF AND SWAP1 DUP2 GT ISZERO PUSH2 0x879 JUMPI PUSH2 0x879 PUSH2 0x13D9 JUMP JUMPDEST EQ PUSH2 0x896 JUMPI PUSH1 0x40 MLOAD PUSH3 0x461BCD PUSH1 0xE5 SHL DUP2 MSTORE PUSH1 0x4 ADD PUSH2 0x430 SWAP1 PUSH2 0x15A9 JUMP JUMPDEST DUP1 PUSH1 0x1 ADD SLOAD TIMESTAMP GT PUSH2 0x8DA JUMPI PUSH1 0x40 MLOAD PUSH3 0x461BCD PUSH1 0xE5 SHL DUP2 MSTORE PUSH1 0x20 PUSH1 0x4 DUP3 ADD MSTORE PUSH1 0xE PUSH1 0x24 DUP3 ADD MSTORE PUSH14 0x7374696C6C206A6F696E61626C65 PUSH1 0x90 SHL PUSH1 0x44 DUP3 ADD MSTORE PUSH1 0x64 ADD PUSH2 0x430 JUMP JUMPDEST PUSH1 0x3 DUP2 ADD DUP1 SLOAD PUSH1 0xFF PUSH1 0xA0 SHL NOT AND PUSH1 0x1 PUSH1 0xA0 SHL OR SWAP1 SSTORE PUSH1 0x40 MLOAD DUP3 SWAP1 PUSH32 0x6CC09E7B5C3E49861EBE8F6867E1618FBFC14C8D0E968FDE37C4243CA02A6F83 SWAP1 PUSH1 0x0 SWAP1 LOG2 POP POP JUMP JUMPDEST PUSH2 0x926 PUSH2 0x10E7 JUMP JUMPDEST PUSH1 0x0 DUP2 DUP2 MSTORE PUSH1 0x3 PUSH1 0x20 MSTORE PUSH1 0x40 DUP2 KECCAK256 SWAP1 PUSH1 0x3 DUP3 DUP2 ADD SLOAD PUSH1 0x1 PUSH1 0xA0 SHL SWAP1 DIV PUSH1 0xFF AND SWAP1 DUP2 GT ISZERO PUSH2 0x955 JUMPI PUSH2 0x955 PUSH2 0x13D9 JUMP JUMPDEST EQ PUSH2 0x972 JUMPI PUSH1 0x40 MLOAD PUSH3 0x461BCD PUSH1 0xE5 SHL DUP2 MSTORE PUSH1 0x4 ADD PUSH2 0x430 SWAP1 PUSH2 0x15A9 JUMP JUMPDEST DUP1 PUSH1 0x1 ADD SLOAD TIMESTAMP GT ISZERO PUSH2 0x996 JUMPI PUSH1 0x40 MLOAD PUSH3 0x461BCD PUSH1 0xE5 SHL DUP2 MSTORE PUSH1 0x4 ADD PUSH2 0x430 SWAP1 PUSH2 0x15CB JUMP JUMPDEST DUP1 SLOAD CALLER PUSH1 0x0 SWAP1 DUP2 MSTORE PUSH1 0x4 PUSH1 0x20 MSTORE PUSH1 0x40 SWAP1 KECCAK256 SLOAD DUP2 GT ISZERO PUSH2 0x9ED JUMPI PUSH1 0x40 MLOAD PUSH3 0x461BCD PUSH1 0xE5 SHL DUP2 MSTORE PUSH1 0x20 PUSH1 0x4 DUP3 ADD MSTORE PUSH1 0x13 PUSH1 0x24 DUP3 ADD MSTORE PUSH19 0x1A5B9CDD59999A58DA595B9D0818DC99591A5D PUSH1 0x6A SHL PUSH1 0x44 DUP3 ADD MSTORE PUSH1 0x64 ADD PUSH2 0x430 JUMP JUMPDEST CALLER PUSH1 0x0 SWAP1 DUP2 MSTORE PUSH1 0x6 DUP4 ADD PUSH1 0x20 MSTORE PUSH1 0x40 SWAP1 KECCAK256 SLOAD PUSH1 0xFF AND ISZERO PUSH2 0xA1F JUMPI PUSH1 0x40 MLOAD PUSH3 0x461BCD PUSH1 0xE5 SHL DUP2 MSTORE PUSH1 0x4 ADD PUSH2 0x430 SWAP1 PUSH2 0x15F0 JUMP JUMPDEST CALLER PUSH1 0x0 SWAP1 DUP2 MSTORE PUSH1 0x4 PUSH1 0x20 MSTORE PUSH1 0x40 DUP2 KECCAK256 DUP1 SLOAD DUP4 SWAP3 SWAP1 PUSH2 0xA3E SWAP1 DUP5 SWAP1 PUSH2 0x1631 JUMP JUMPDEST SWAP1 SWAP2 SSTORE POP PUSH2 0xA4F SWAP1 POP DUP4 CALLER DUP4 PUSH2 0x3E4 JUMP JUMPDEST POP POP PUSH2 0xA5B PUSH1 0x1 PUSH1 0x0 SSTORE JUMP JUMPDEST POP JUMP JUMPDEST PUSH2 0xA66 PUSH2 0x10E7 JUMP JUMPDEST PUSH2 0xA71 DUP2 CALLER CALLVALUE PUSH2 0x3E4 JUMP JUMPDEST PUSH2 0xA5B PUSH1 0x1 PUSH1 0x0 SSTORE JUMP JUMPDEST PUSH1 0x0 DUP3 DUP2 MSTORE PUSH1 0x3 PUSH1 0x20 SWAP1 DUP2 MSTORE PUSH1 0x40 DUP1 DUP4 KECCAK256 PUSH1 0x1 PUSH1 0x1 PUSH1 0xA0 SHL SUB DUP6 AND DUP5 MSTORE PUSH1 0x6 ADD SWAP1 SWAP2 MSTORE SWAP1 KECCAK256 SLOAD PUSH1 0xFF AND JUMPDEST SWAP3 SWAP2 POP POP JUMP JUMPDEST PUSH2 0xAB3 PUSH2 0x10E7 JUMP JUMPDEST PUSH1 0x0 DUP5 DUP2 MSTORE PUSH1 0x3 PUSH1 0x20 MSTORE PUSH1 0x40 SWAP1 KECCAK256 PUSH1 0x1 PUSH1 0x3 DUP3 DUP2 ADD SLOAD PUSH1 0x1 PUSH1 0xA0 SHL SWAP1 DIV PUSH1 0xFF AND SWAP1 DUP2 GT ISZERO PUSH2 0xAE3 JUMPI PUSH2 0xAE3 PUSH2 0x13D9 JUMP JUMPDEST EQ PUSH2 0xB1D JUMPI PUSH1 0x40 MLOAD PUSH3 0x461BCD PUSH1 0xE5 SHL DUP2 MSTORE PUSH1 0x20 PUSH1 0x4 DUP3 ADD MSTORE PUSH1 0xA PUSH1 0x24 DUP3 ADD MSTORE PUSH10 0x1B9BDD0818DB1BDCD959 PUSH1 0xB2 SHL PUSH1 0x44 DUP3 ADD MSTORE PUSH1 0x64 ADD PUSH2 0x430 JUMP JUMPDEST PUSH1 0x1 PUSH1 0x1 PUSH1 0xA0 SHL SUB DUP5 AND PUSH1 0x0 SWAP1 DUP2 MSTORE PUSH1 0x6 DUP3 ADD PUSH1 0x20 MSTORE PUSH1 0x40 SWAP1 KECCAK256 SLOAD PUSH1 0xFF AND PUSH2 0xB80 JUMPI PUSH1 0x40 MLOAD PUSH3 0x461BCD PUSH1 0xE5 SHL DUP2 MSTORE PUSH1 0x20 PUSH1 0x4 DUP3 ADD MSTORE PUSH1 0x16 PUSH1 0x24 DUP3 ADD MSTORE PUSH22 0x1DDA5B9B995C881B9BDD081C185C9D1A58DA5C185B9D PUSH1 0x52 SHL PUSH1 0x44 DUP3 ADD MSTORE PUSH1 0x64 ADD PUSH2 0x430 JUMP JUMPDEST PUSH1 0x1 SLOAD PUSH1 0x40 DUP1 MLOAD PUSH32 0x4ADC2572CD3E5132BEB0984CC599C0DF6973BEDC3D6B61061A852FA34CCBD231 PUSH1 0x20 DUP3 ADD MSTORE SWAP1 DUP2 ADD DUP8 SWAP1 MSTORE PUSH1 0x1 PUSH1 0x1 PUSH1 0xA0 SHL SUB DUP7 AND PUSH1 0x60 DUP3 ADD MSTORE PUSH1 0x80 DUP2 ADD SWAP2 SWAP1 SWAP2 MSTORE PUSH1 0x0 SWAP1 PUSH1 0xA0 ADD PUSH1 0x40 DUP1 MLOAD PUSH1 0x1F NOT DUP2 DUP5 SUB ADD DUP2 MSTORE SWAP1 DUP3 SWAP1 MSTORE DUP1 MLOAD PUSH1 0x20 SWAP2 DUP3 ADD KECCAK256 PUSH2 0x1901 PUSH1 0xF0 SHL SWAP2 DUP4 ADD SWAP2 SWAP1 SWAP2 MSTORE PUSH32 0x0 PUSH1 0x22 DUP4 ADD MSTORE PUSH1 0x42 DUP3 ADD DUP2 SWAP1 MSTORE SWAP2 POP PUSH1 0x0 SWAP1 PUSH1 0x62 ADD PUSH1 0x40 MLOAD PUSH1 0x20 DUP2 DUP4 SUB SUB DUP2 MSTORE SWAP1 PUSH1 0x40 MSTORE DUP1 MLOAD SWAP1 PUSH1 0x20 ADD KECCAK256 SWAP1 POP PUSH1 0x0 PUSH2 0xC85 DUP3 DUP8 DUP8 DUP1 DUP1 PUSH1 0x1F ADD PUSH1 0x20 DUP1 SWAP2 DIV MUL PUSH1 0x20 ADD PUSH1 0x40 MLOAD SWAP1 DUP2 ADD PUSH1 0x40 MSTORE DUP1 SWAP4 SWAP3 SWAP2 SWAP1 DUP2 DUP2 MSTORE PUSH1 0x20 ADD DUP4 DUP4 DUP1 DUP3 DUP5 CALLDATACOPY PUSH1 0x0 SWAP3 ADD SWAP2 SWAP1 SWAP2 MSTORE POP PUSH2 0x1111 SWAP3 POP POP POP JUMP JUMPDEST PUSH1 0x3 DUP6 ADD SLOAD SWAP1 SWAP2 POP PUSH1 0x1 PUSH1 0x1 PUSH1 0xA0 SHL SUB DUP1 DUP4 AND SWAP2 AND EQ PUSH2 0xCD7 JUMPI PUSH1 0x40 MLOAD PUSH3 0x461BCD PUSH1 0xE5 SHL DUP2 MSTORE PUSH1 0x20 PUSH1 0x4 DUP3 ADD MSTORE PUSH1 0xD PUSH1 0x24 DUP3 ADD MSTORE PUSH13 0x626164207369676E6174757265 PUSH1 0x98 SHL PUSH1 0x44 DUP3 ADD MSTORE PUSH1 0x64 ADD PUSH2 0x430 JUMP JUMPDEST PUSH1 0x5 DUP5 ADD DUP1 SLOAD PUSH1 0x0 SWAP2 DUP3 SWAP1 SSTORE PUSH1 0x3 DUP7 ADD DUP1 SLOAD PUSH1 0xFF PUSH1 0xA0 SHL NOT AND PUSH1 0x1 PUSH1 0xA1 SHL OR SWAP1 SSTORE PUSH1 0x4 DUP7 ADD DUP1 SLOAD PUSH1 0x1 PUSH1 0x1 PUSH1 0xA0 SHL SUB NOT AND PUSH1 0x1 PUSH1 0x1 PUSH1 0xA0 SHL SUB DUP12 AND OR SWAP1 SSTORE PUSH1 0x1 DUP1 SLOAD SWAP2 SWAP3 PUSH2 0xD24 DUP4 PUSH2 0x1618 JUMP JUMPDEST SWAP2 SWAP1 POP SSTORE POP PUSH1 0x0 DUP9 PUSH1 0x1 PUSH1 0x1 PUSH1 0xA0 SHL SUB AND DUP3 PUSH1 0x40 MLOAD PUSH1 0x0 PUSH1 0x40 MLOAD DUP1 DUP4 SUB DUP2 DUP6 DUP8 GAS CALL SWAP3 POP POP POP RETURNDATASIZE DUP1 PUSH1 0x0 DUP2 EQ PUSH2 0xD76 JUMPI PUSH1 0x40 MLOAD SWAP2 POP PUSH1 0x1F NOT PUSH1 0x3F RETURNDATASIZE ADD AND DUP3 ADD PUSH1 0x40 MSTORE RETURNDATASIZE DUP3 MSTORE RETURNDATASIZE PUSH1 0x0 PUSH1 0x20 DUP5 ADD RETURNDATACOPY PUSH2 0xD7B JUMP JUMPDEST PUSH1 0x60 SWAP2 POP JUMPDEST POP POP SWAP1 POP DUP1 PUSH2 0xDBE JUMPI PUSH1 0x40 MLOAD PUSH3 0x461BCD PUSH1 0xE5 SHL DUP2 MSTORE PUSH1 0x20 PUSH1 0x4 DUP3 ADD MSTORE PUSH1 0xF PUSH1 0x24 DUP3 ADD MSTORE PUSH15 0x1D1C985B9CD9995C8819985A5B1959 PUSH1 0x8A SHL PUSH1 0x44 DUP3 ADD MSTORE PUSH1 0x64 ADD PUSH2 0x430 JUMP JUMPDEST DUP9 PUSH1 0x1 PUSH1 0x1 PUSH1 0xA0 SHL SUB AND DUP11 PUSH32 0x97EDF642B74402B9B5B06C1324B9FFF512B4FEE8EF46E2D28E465DE88B35FE8C DUP5 PUSH1 0x40 MLOAD PUSH2 0xDFA SWAP2 DUP2 MSTORE PUSH1 0x20 ADD SWAP1 JUMP JUMPDEST PUSH1 0x40 MLOAD DUP1 SWAP2 SUB SWAP1 LOG3 POP POP POP POP POP POP PUSH2 0xE12 PUSH1 0x1 PUSH1 0x0 SSTORE JUMP JUMPDEST POP POP POP POP JUMP JUMPDEST PUSH1 0x0 DUP2 DUP2 MSTORE PUSH1 0x3 PUSH1 0x20 SWAP1 DUP2 MSTORE PUSH1 0x40 SWAP2 DUP3 SWAP1 KECCAK256 PUSH1 0x7 ADD DUP1 SLOAD DUP4 MLOAD DUP2 DUP5 MUL DUP2 ADD DUP5 ADD SWAP1 SWAP5 MSTORE DUP1 DUP5 MSTORE PUSH1 0x60 SWAP4 SWAP3 DUP4 ADD DUP3 DUP3 DUP1 ISZERO PUSH2 0xE7B JUMPI PUSH1 0x20 MUL DUP3 ADD SWAP2 SWAP1 PUSH1 0x0 MSTORE PUSH1 0x20 PUSH1 0x0 KECCAK256 SWAP1 JUMPDEST DUP2 SLOAD PUSH1 0x1 PUSH1 0x1 PUSH1 0xA0 SHL SUB AND DUP2 MSTORE PUSH1 0x1 SWAP1 SWAP2 ADD SWAP1 PUSH1 0x20 ADD DUP1 DUP4 GT PUSH2 0xE5D JUMPI JUMPDEST POP POP POP POP POP SWAP1 POP SWAP2 SWAP1 POP JUMP JUMPDEST PUSH2 0xE8F PUSH2 0x10E7 JUMP JUMPDEST PUSH1 0x0 DUP2 DUP2 MSTORE PUSH1 0x3 PUSH1 0x20 MSTORE PUSH1 0x40 SWAP1 KECCAK256 PUSH1 0x1 PUSH1 0x3 DUP3 DUP2 ADD SLOAD PUSH1 0x1 PUSH1 0xA0 SHL SWAP1 DIV PUSH1 0xFF AND SWAP1 DUP2 GT ISZERO PUSH2 0xEBF JUMPI PUSH2 0xEBF PUSH2 0x13D9 JUMP JUMPDEST EQ DUP1 PUSH2 0xEEA JUMPI POP PUSH1 0x0 PUSH1 0x3 DUP3 DUP2 ADD SLOAD PUSH1 0x1 PUSH1 0xA0 SHL SWAP1 DIV PUSH1 0xFF AND SWAP1 DUP2 GT ISZERO PUSH2 0xEE8 JUMPI PUSH2 0xEE8 PUSH2 0x13D9 JUMP JUMPDEST EQ JUMPDEST PUSH2 0xF27 JUMPI PUSH1 0x40 MLOAD PUSH3 0x461BCD PUSH1 0xE5 SHL DUP2 MSTORE PUSH1 0x20 PUSH1 0x4 DUP3 ADD MSTORE PUSH1 0xE PUSH1 0x24 DUP3 ADD MSTORE PUSH14 0x6E6F7420726566756E6461626C65 PUSH1 0x90 SHL PUSH1 0x44 DUP3 ADD MSTORE PUSH1 0x64 ADD PUSH2 0x430 JUMP JUMPDEST PUSH1 0x2 DUP2 ADD SLOAD PUSH1 0x1 PUSH1 0x1 PUSH1 0xA0 SHL SUB AND CALLER EQ PUSH2 0xF73 JUMPI PUSH1 0x40 MLOAD PUSH3 0x461BCD PUSH1 0xE5 SHL DUP2 MSTORE PUSH1 0x20 PUSH1 0x4 DUP3 ADD MSTORE PUSH1 0xD PUSH1 0x24 DUP3 ADD MSTORE PUSH13 0x3737BA1037B933B0B734BD32B9 PUSH1 0x99 SHL PUSH1 0x44 DUP3 ADD MSTORE PUSH1 0x64 ADD PUSH2 0x430 JUMP JUMPDEST PUSH1 0x3 DUP2 ADD DUP1 SLOAD PUSH1 0xFF PUSH1 0xA0 SHL NOT AND PUSH1 0x3 PUSH1 0xA0 SHL OR SWAP1 SSTORE PUSH1 0x7 DUP2 ADD SLOAD DUP2 SLOAD PUSH1 0x0 JUMPDEST DUP3 DUP2 LT ISZERO PUSH2 0x10AE JUMPI PUSH1 0x0 DUP5 PUSH1 0x7 ADD DUP3 DUP2 SLOAD DUP2 LT PUSH2 0xFB1 JUMPI PUSH2 0xFB1 PUSH2 0x1644 JUMP JUMPDEST PUSH1 0x0 SWAP2 DUP3 MSTORE PUSH1 0x20 DUP1 DUP4 KECCAK256 SWAP1 SWAP2 ADD SLOAD PUSH1 0x1 PUSH1 0x1 PUSH1 0xA0 SHL SUB AND DUP1 DUP4 MSTORE PUSH1 0x6 DUP9 ADD SWAP1 SWAP2 MSTORE PUSH1 0x40 SWAP1 SWAP2 KECCAK256 SLOAD SWAP1 SWAP2 POP PUSH1 0xFF AND ISZERO PUSH2 0x10A5 JUMPI PUSH1 0x1 PUSH1 0x1 PUSH1 0xA0 SHL SUB DUP2 AND PUSH1 0x0 DUP2 DUP2 MSTORE PUSH1 0x6 DUP8 ADD PUSH1 0x20 MSTORE PUSH1 0x40 DUP1 DUP3 KECCAK256 DUP1 SLOAD PUSH1 0xFF NOT AND SWAP1 SSTORE MLOAD SWAP1 SWAP2 SWAP1 DUP6 SWAP1 DUP4 DUP2 DUP2 DUP2 DUP6 DUP8 GAS CALL SWAP3 POP POP POP RETURNDATASIZE DUP1 PUSH1 0x0 DUP2 EQ PUSH2 0x1044 JUMPI PUSH1 0x40 MLOAD SWAP2 POP PUSH1 0x1F NOT PUSH1 0x3F RETURNDATASIZE ADD AND DUP3 ADD PUSH1 0x40 MSTORE RETURNDATASIZE DUP3 MSTORE RETURNDATASIZE PUSH1 0x0 PUSH1 0x20 DUP5 ADD RETURNDATACOPY PUSH2 0x1049 JUMP JUMPDEST PUSH1 0x60 SWAP2 POP JUMPDEST POP POP SWAP1 POP DUP1 PUSH2 0x108A JUMPI PUSH1 0x40 MLOAD PUSH3 0x461BCD PUSH1 0xE5 SHL DUP2 MSTORE PUSH1 0x20 PUSH1 0x4 DUP3 ADD MSTORE PUSH1 0xD PUSH1 0x24 DUP3 ADD MSTORE PUSH13 0x1C99599D5B990819985A5B1959 PUSH1 0x9A SHL PUSH1 0x44 DUP3 ADD MSTORE PUSH1 0x64 ADD PUSH2 0x430 JUMP JUMPDEST DUP4 DUP7 PUSH1 0x5 ADD PUSH1 0x0 DUP3 DUP3 SLOAD PUSH2 0x109E SWAP2 SWAP1 PUSH2 0x1631 JUMP JUMPDEST SWAP1 SWAP2 SSTORE POP POP POP JUMPDEST POP PUSH1 0x1 ADD PUSH2 0xF92 JUMP JUMPDEST POP PUSH1 0x40 MLOAD DUP5 SWAP1 PUSH32 0x3D2A04F53164BEDF9A8A46353305D6B2D2261410406DF3B41F99CE6489DC003C SWAP1 PUSH1 0x0 SWAP1 LOG2 POP POP POP PUSH2 0xA5B PUSH1 0x1 PUSH1 0x0 SSTORE JUMP JUMPDEST PUSH1 0x2 PUSH1 0x0 SLOAD SUB PUSH2 0x110A JUMPI PUSH1 0x40 MLOAD PUSH4 0x3EE5AEB5 PUSH1 0xE0 SHL DUP2 MSTORE PUSH1 0x4 ADD PUSH1 0x40 MLOAD DUP1 SWAP2 SUB SWAP1 REVERT JUMPDEST PUSH1 0x2 PUSH1 0x0 SSTORE JUMP JUMPDEST PUSH1 0x0 DUP1 PUSH1 0x0 DUP1 PUSH2 0x1121 DUP7 DUP7 PUSH2 0x113B JUMP JUMPDEST SWAP3 POP SWAP3 POP SWAP3 POP PUSH2 0x1131 DUP3 DUP3 PUSH2 0x1188 JUMP JUMPDEST POP SWAP1 SWAP5 SWAP4 POP POP POP POP JUMP JUMPDEST PUSH1 0x0 DUP1 PUSH1 0x0 DUP4 MLOAD PUSH1 0x41 SUB PUSH2 0x1175 JUMPI PUSH1 0x20 DUP5 ADD MLOAD PUSH1 0x40 DUP6 ADD MLOAD PUSH1 0x60 DUP7 ADD MLOAD PUSH1 0x0 BYTE PUSH2 0x1167 DUP9 DUP3 DUP6 DUP6 PUSH2 0x1241 JUMP JUMPDEST SWAP6 POP SWAP6 POP SWAP6 POP POP POP POP PUSH2 0x1181 JUMP JUMPDEST POP POP DUP2 MLOAD PUSH1 0x0 SWAP2 POP PUSH1 0x2 SWAP1 JUMPDEST SWAP3 POP SWAP3 POP SWAP3 JUMP JUMPDEST PUSH1 0x0 DUP3 PUSH1 0x3 DUP2 GT ISZERO PUSH2 0x119C JUMPI PUSH2 0x119C PUSH2 0x13D9 JUMP JUMPDEST SUB PUSH2 0x11A5 JUMPI POP POP JUMP JUMPDEST PUSH1 0x1 DUP3 PUSH1 0x3 DUP2 GT ISZERO PUSH2 0x11B9 JUMPI PUSH2 0x11B9 PUSH2 0x13D9 JUMP JUMPDEST SUB PUSH2 0x11D7 JUMPI PUSH1 0x40 MLOAD PUSH4 0xF645EEDF PUSH1 0xE0 SHL DUP2 MSTORE PUSH1 0x4 ADD PUSH1 0x40 MLOAD DUP1 SWAP2 SUB SWAP1 REVERT JUMPDEST PUSH1 0x2 DUP3 PUSH1 0x3 DUP2 GT ISZERO PUSH2 0x11EB JUMPI PUSH2 0x11EB PUSH2 0x13D9 JUMP JUMPDEST SUB PUSH2 0x120C JUMPI PUSH1 0x40 MLOAD PUSH4 0xFCE698F7 PUSH1 0xE0 SHL DUP2 MSTORE PUSH1 0x4 DUP2 ADD DUP3 SWAP1 MSTORE PUSH1 0x24 ADD PUSH2 0x430 JUMP JUMPDEST PUSH1 0x3 DUP3 PUSH1 0x3 DUP2 GT ISZERO PUSH2 0x1220 JUMPI PUSH2 0x1220 PUSH2 0x13D9 JUMP JUMPDEST SUB PUSH2 0x846 JUMPI PUSH1 0x40 MLOAD PUSH4 0x35E2F383 PUSH1 0xE2 SHL DUP2 MSTORE PUSH1 0x4 DUP2 ADD DUP3 SWAP1 MSTORE PUSH1 0x24 ADD PUSH2 0x430 JUMP JUMPDEST PUSH1 0x0 DUP1 DUP1 PUSH32 0x7FFFFFFFFFFFFFFFFFFFFFFFFFFFFFFF5D576E7357A4501DDFE92F46681B20A0 DUP5 GT ISZERO PUSH2 0x127C JUMPI POP PUSH1 0x0 SWAP2 POP PUSH1 0x3 SWAP1 POP DUP3 PUSH2 0x1306 JUMP JUMPDEST PUSH1 0x40 DUP1 MLOAD PUSH1 0x0 DUP1 DUP3 MSTORE PUSH1 0x20 DUP3 ADD DUP1 DUP5 MSTORE DUP11 SWAP1 MSTORE PUSH1 0xFF DUP10 AND SWAP3 DUP3 ADD SWAP3 SWAP1 SWAP3 MSTORE PUSH1 0x60 DUP2 ADD DUP8 SWAP1 MSTORE PUSH1 0x80 DUP2 ADD DUP7 SWAP1 MSTORE PUSH1 0x1 SWAP1 PUSH1 0xA0 ADD PUSH1 0x20 PUSH1 0x40 MLOAD PUSH1 0x20 DUP2 SUB SWAP1 DUP1 DUP5 SUB SWAP1 DUP6 GAS STATICCALL ISZERO DUP1 ISZERO PUSH2 0x12D0 JUMPI RETURNDATASIZE PUSH1 0x0 DUP1 RETURNDATACOPY RETURNDATASIZE PUSH1 0x0 REVERT JUMPDEST POP POP PUSH1 0x40 MLOAD PUSH1 0x1F NOT ADD MLOAD SWAP2 POP POP PUSH1 0x1 PUSH1 0x1 PUSH1 0xA0 SHL SUB DUP2 AND PUSH2 0x12FC JUMPI POP PUSH1 0x0 SWAP3 POP PUSH1 0x1 SWAP2 POP DUP3 SWAP1 POP PUSH2 0x1306 JUMP JUMPDEST SWAP3 POP PUSH1 0x0 SWAP2 POP DUP2 SWAP1 POP JUMPDEST SWAP5 POP SWAP5 POP SWAP5 SWAP2 POP POP JUMP JUMPDEST PUSH4 0x4E487B71 PUSH1 0xE0 SHL PUSH1 0x0 MSTORE PUSH1 0x11 PUSH1 0x4 MSTORE PUSH1 0x24 PUSH1 0x0 REVERT JUMPDEST DUP1 DUP3 ADD DUP1 DUP3 GT ISZERO PUSH2 0xAA5 JUMPI PUSH2 0xAA5 PUSH2 0x1310 JUMP JUMPDEST PUSH1 0x0 PUSH1 0x20 DUP3 DUP5 SUB SLT ISZERO PUSH2 0x134B JUMPI PUSH1 0x0 DUP1 REVERT JUMPDEST POP CALLDATALOAD SWAP2 SWAP1 POP JUMP JUMPDEST DUP4 DUP2 MSTORE PUSH1 0x40 PUSH1 0x20 DUP3 ADD MSTORE DUP2 PUSH1 0x40 DUP3 ADD MSTORE DUP2 DUP4 PUSH1 0x60 DUP4 ADD CALLDATACOPY PUSH1 0x0 DUP2 DUP4 ADD PUSH1 0x60 SWAP1 DUP2 ADD SWAP2 SWAP1 SWAP2 MSTORE PUSH1 0x1F SWAP1 SWAP3 ADD PUSH1 0x1F NOT AND ADD ADD SWAP3 SWAP2 POP POP JUMP JUMPDEST DUP1 CALLDATALOAD PUSH1 0x1 PUSH1 0x1 PUSH1 0xA0 SHL SUB DUP2 AND DUP2 EQ PUSH2 0x139F JUMPI PUSH1 0x0 DUP1 REVERT JUMPDEST SWAP2 SWAP1 POP JUMP JUMPDEST PUSH1 0x0 DUP1 PUSH1 0x0 PUSH1 0x60 DUP5 DUP7 SUB SLT ISZERO PUSH2 0x13B9 JUMPI PUSH1 0x0 DUP1 REVERT JUMPDEST DUP4 CALLDATALOAD SWAP3 POP PUSH1 0x20 DUP5 ADD CALLDATALOAD SWAP2 POP PUSH2 0x13D0 PUSH1 0x40 DUP6 ADD PUSH2 0x1388 JUMP JUMPDEST SWAP1 POP SWAP3 POP SWAP3 POP SWAP3 JUMP JUMPDEST PUSH4 0x4E487B71 PUSH1 0xE0 SHL PUSH1 0x0 MSTORE PUSH1 0x21 PUSH1 0x4 MSTORE PUSH1 0x24 PUSH1 0x0 REVERT JUMPDEST DUP9 DUP2 MSTORE PUSH1 0x20 DUP2 ADD DUP9 SWAP1 MSTORE PUSH1 0x1 PUSH1 0x1 PUSH1 0xA0 SHL SUB DUP8 DUP2 AND PUSH1 0x40 DUP4 ADD MSTORE DUP7 DUP2 AND PUSH1 0x60 DUP4 ADD MSTORE PUSH2 0x100 DUP3 ADD SWAP1 PUSH1 0x4 DUP8 LT PUSH2 0x1435 JUMPI PUSH4 0x4E487B71 PUSH1 0xE0 SHL PUSH1 0x0 MSTORE PUSH1 0x21 PUSH1 0x4 MSTORE PUSH1 0x24 PUSH1 0x0 REVERT JUMPDEST DUP7 PUSH1 0x80 DUP5 ADD MSTORE DUP1 DUP7 AND PUSH1 0xA0 DUP5 ADD MSTORE POP DUP4 PUSH1 0xC0 DUP4 ADD MSTORE DUP3 PUSH1 0xE0 DUP4 ADD MSTORE SWAP10 SWAP9 POP POP POP POP POP POP POP POP POP JUMP JUMPDEST PUSH1 0x0 DUP1 PUSH1 0x40 DUP4 DUP6 SUB SLT ISZERO PUSH2 0x1470 JUMPI PUSH1 0x0 DUP1 REVERT JUMPDEST PUSH2 0x1479 DUP4 PUSH2 0x1388 JUMP JUMPDEST SWAP5 PUSH1 0x20 SWAP4 SWAP1 SWAP4 ADD CALLDATALOAD SWAP4 POP POP POP JUMP JUMPDEST PUSH1 0x0 DUP1 PUSH1 0x40 DUP4 DUP6 SUB SLT ISZERO PUSH2 0x149A JUMPI PUSH1 0x0 DUP1 REVERT JUMPDEST DUP3 CALLDATALOAD SWAP2 POP PUSH2 0x14AA PUSH1 0x20 DUP5 ADD PUSH2 0x1388 JUMP JUMPDEST SWAP1 POP SWAP3 POP SWAP3 SWAP1 POP JUMP JUMPDEST PUSH1 0x0 PUSH1 0x20 DUP3 DUP5 SUB SLT ISZERO PUSH2 0x14C5 JUMPI PUSH1 0x0 DUP1 REVERT JUMPDEST PUSH2 0x14CE DUP3 PUSH2 0x1388 JUMP JUMPDEST SWAP4 SWAP3 POP POP POP JUMP JUMPDEST PUSH1 0x0 DUP1 PUSH1 0x0 DUP1 PUSH1 0x60 DUP6 DUP8 SUB SLT ISZERO PUSH2 0x14EB JUMPI PUSH1 0x0 DUP1 REVERT JUMPDEST DUP5 CALLDATALOAD SWAP4 POP PUSH2 0x14FB PUSH1 0x20 DUP7 ADD PUSH2 0x1388 JUMP JUMPDEST SWAP3 POP PUSH1 0x40 DUP6 ADD CALLDATALOAD PUSH8 0xFFFFFFFFFFFFFFFF DUP1 DUP3 GT ISZERO PUSH2 0x1518 JUMPI PUSH1 0x0 DUP1 REVERT JUMPDEST DUP2 DUP8 ADD SWAP2 POP DUP8 PUSH1 0x1F DUP4 ADD SLT PUSH2 0x152C JUMPI PUSH1 0x0 DUP1 REVERT JUMPDEST DUP2 CALLDATALOAD DUP2 DUP2 GT ISZERO PUSH2 0x153B JUMPI PUSH1 0x0 DUP1 REVERT JUMPDEST DUP9 PUSH1 0x20 DUP3 DUP6 ADD ADD GT ISZERO PUSH2 0x154D JUMPI PUSH1 0x0 DUP1 REVERT JUMPDEST SWAP6 SWAP9 SWAP5 SWAP8 POP POP PUSH1 0x20 ADD SWAP5 POP POP POP JUMP JUMPDEST PUSH1 0x20 DUP1 DUP3 MSTORE DUP3 MLOAD DUP3 DUP3 ADD DUP2 SWAP1 MSTORE PUSH1 0x0 SWAP2 SWAP1 DUP5 DUP3 ADD SWAP1 PUSH1 0x40 DUP6 ADD SWAP1 DUP5 JUMPDEST DUP2 DUP2 LT ISZERO PUSH2 0x159D JUMPI DUP4 MLOAD PUSH1 0x1 PUSH1 0x1 PUSH1 0xA0 SHL SUB AND DUP4 MSTORE SWAP3 DUP5 ADD SWAP3 SWAP2 DUP5 ADD SWAP2 PUSH1 0x1 ADD PUSH2 0x1578 JUMP JUMPDEST POP SWAP1 SWAP7 SWAP6 POP POP POP POP POP POP JUMP JUMPDEST PUSH1 0x20 DUP1 DUP3 MSTORE PUSH1 0x8 SWAP1 DUP3 ADD MSTORE PUSH8 0x3737BA1037B832B7 PUSH1 0xC1 SHL PUSH1 0x40 DUP3 ADD MSTORE PUSH1 0x60 ADD SWAP1 JUMP JUMPDEST PUSH1 0x20 DUP1 DUP3 MSTORE PUSH1 0xB SWAP1 DUP3 ADD MSTORE PUSH11 0x1A9BDA5B8818DB1BDCD959 PUSH1 0xAA SHL PUSH1 0x40 DUP3 ADD MSTORE PUSH1 0x60 ADD SWAP1 JUMP JUMPDEST PUSH1 0x20 DUP1 DUP3 MSTORE PUSH1 0xE SWAP1 DUP3 ADD MSTORE PUSH14 0x185B1C9958591E481A9BDA5B9959 PUSH1 0x92 SHL PUSH1 0x40 DUP3 ADD MSTORE PUSH1 0x60 ADD SWAP1 JUMP JUMPDEST PUSH1 0x0 PUSH1 0x1 DUP3 ADD PUSH2 0x162A JUMPI PUSH2 0x162A PUSH2 0x1310 JUMP JUMPDEST POP PUSH1 0x1 ADD SWAP1 JUMP JUMPDEST DUP2 DUP2 SUB DUP2 DUP2 GT ISZERO PUSH2 0xAA5 JUMPI PUSH2 0xAA5 PUSH2 0x1310 JUMP JUMPDEST PUSH4 0x4E487B71 PUSH1 0xE0 SHL PUSH1 0x0 MSTORE PUSH1 0x32 PUSH1 0x4 MSTORE PUSH1 0x24 PUSH1 0x0 REVERT INVALID LOG2 PUSH5 0x6970667358 0x22 SLT KECCAK256 0xDF 0xD5 MSTORE 0xB3 DUP10 PUSH18 0xAF46F55BD761F94392851BA9CFBF026D8E73 REVERT SWAP8 CALLER REVERT 0xB0 0xE5 0xF7 SWAP3 PUSH5 0x736F6C6343 STOP ADDMOD XOR STOP CALLER "},"methodIdentifiers":{"claimToRace(uint256)":"276c1ee5","claimToRaceFor(address,uint256)":"0e6ef62f","closeJoin(uint256)":"156ed2ca","createRace(uint256,uint256,address)":"0c296b89","depositToRace(uint256)":"31d21c5b","getRace(uint256)":"0d71aba5","hasJoined(uint256,address)":"68194719","joinRace(uint256)":"50c95171","nextRaceId()":"d9b8fd8f","nonce()":"affed0e0","participantsOf(uint256)":"e200c857","pendingCredits(address)":"aa353402","refundAll(uint256)":"e9fee16f","submitResult(uint256,address,bytes)":"b13bd339"}}}}}